S01200004E6F6973654D616B65722E7372656324
S11300008FC00000AAC00000A8C00000A6C0000065
S1130010A4C00000A2C00000A0C000009EC0000058
S11300209CC000009AC0000098C0000096C0000068
S113003094C0000092C0000090C000008EC0000078
S11300408CC000008AC0000088C0000086C0000088
S113005084C0000082C0000080C000007EC0000098
S11300607CC000007AC0000078C0000076C00000A8
S113007074C0000072C0000070C000006EC00000B8
S11300806CC000006AC0000068C0000066C00000C8
S113009064C0000062C0000060C000005EC00000D8
S11300A05CC000005AC0000058C0000056C00000E8
S11300B054C0000052C0000050C000004EC00000F8
S11300C04CC000004AC0000048C0000046C0000008
S11300D044C0000042C0000040C000003EC0000018
S11300E03CC000003AC0000038C0000036C0000028
S11300F034C0000032C0000030C000002EC0000038
S11301002CC000002AC0000028C0000026C0000047
S113011024C0000022C0000020C000001EC0000057
S113012011241FBECFEFD1E4DEBFCDBF12E0A0E0AB
S1130130B2E0E4E4FCE000E00BBF02C007900D92E3
S1130140A031B107D9F723E0A0E1B2E001C01D92CC
S1130150AE35B207E1F7B8D273C552CF6D98759A30
S1130160089581E0659980E00895FBDF91E0892797
S113017008956A9A6B9A6C9A729A739A749A08950B
S1130180813011F472980895823011F473980895AF
S1130190833009F474980895813011F4729A0895A3
S11301A0823011F4739A0895833009F4749A08958F
S11301B0FF920F931F93CF93DF93082F192FF62EDF
S11301C0C9E3D1E0188286E090E0BED381E0888361
S11301D08091410180931002882351F488E0809338
S11301E042018EEF91E0B0D38091410180931002DF
S11301F08BE0809348018FEF80934F0100931102AD
S11302001093120200936001109361011092620135
S1130210109263018091410180931002F0921302C5
S1130220DF91CF911F910F91FF9008958FEF8093ED
S11302304F0186E080934201E1E4F1E080818F7117
S11302408630E1F7ECE4F1E08081806880830895F2
S1130250809114021092140208952FEF20934F01FD
S1130260209141012F71293041F029E0209342016E
S1130270E1E4F1E020812930E9F7262F235F209380
S1130280800120E22093810122E22093820121E077
S1130290209383011092840110928501509386016A
S11302A040938701109288011092890120911202D3
S11302B020938A012091110220938B01662391F0EF
S11302C0A82FB92F615070E0CB0183579E4FECE803
S11302D0F1E02D912193E817F907D9F7FB01E357D2
S11302E0FE4F02C0ECE8F1E01082118282E08093BC
S11302F04201EFE4F1E0808186FFFDCF8FEF809330
S11303004F0186E080934201E1E4F1E080818F7146
S11303108630E1F781E0809314028091410180935B
S11303201002089590914F0181E093FF80E00895B9
S11303308F929F92AF92BF92CF92DF92EF92FF92F1
S11303400F931F93CF93782FC92F5A0149014091DE
S11303507B018FEF80930002EFE4F1E0808182FF64
S1130360FDCF0CC0808190E08F7190702817390701
S113037064F480818F718093000204C0AFE4B1E023
S1130380E6E4F1E02091000230E08C9183FFEACFB3
S1130390842F8B50462F861708F4482F30918501FF
S11303A020E08091860190E0822B932BF5019183CC
S11303B080833091890120E080918A0190E0822B32
S11303C0932BF40191838083442399F0A72FBC2FAE
S11303D0242F215030E0C90184579E4FEBE8F1E00F
S11303E051915D93E817F907D9F7F901E457FE4FE6
S11303F002C0EBE8F1E0808180931502F60180836E
S11304008091470180931602F70180838091460111
S1130410881F8827881FF8018083E1E4F1E0808148
S11304208F718630E1F7ECE4F1E080818F7780838F
S11304308081806880838FEF80934F018091410198
S113044080931002842F8250CF911F910F91FF90BF
S1130450EF90DF90CF90BF90AF909F908F900895D2
S1130460E5E4F1E090818F70907F982B908308955C
S1130470809146018F7190910002981710F4809337
S11304800002089580910002109200020895809164
S1130490160208958091150208958091130208951B
S11304A0809111029091120208954F925F926F927F
S11304B07F928F929F92AF92BF92CF92DF92EF92F0
S11304C0FF924B015C01D9D12B013C01689413F8D4
S11304D076946794579447941694D1F70F2EFAE0C4
S11304E0CF2EF0E0DF2EF0E0EF2EF0E0FF2EF02D27
S11304F0C501B401A701960168D3C301B20165D354
S1130500CA01B9016B5F7F4F8F4F9F4FA7019601BF
S11305105CD3DA01C9010197A109B109E1ECF0E06A
S113052010821092C00026E02093C200292F2F7061
S11305302093C5008093C40088E1808381E092E029
S113054090935B0380935A03EAE5F3E092938293DA
S11305509583848381E080931702FF90EF90DF906E
S1130560CF90BF90AF909F908F907F906F905F904F
S11305704F900895809117020895E0ECF0E0908187
S113058095FFFDCF8093C6000895CF93C82FF5DF64
S11305908C2F90E0CF910895CF93DF93EC01888165
S11305A0882329F02196E9DF89918823E1F7DF91F7
S11305B0CF9108958091C000881F8827881F0895CF
S11305C0F9DF8823E9F38091C6000895CF93F8DF1B
S11305D0C82FD3DF8C2F90E0CF910895BC014091B8
S11305E01D0250911E024817590741F1AFE1B2E0D4
S11305F09D012E5E3F4FFD018191919186179707D2
S1130600E9F0E217F307C1F74115510541F021E084
S113061030E0A9018D919D91009759F402C040E00A
S113062050E0FA01EE0FFF1FE35EFD4F718360831C
S113063008952F5F3F4F2A30310559F70895FC0183
S1130640009729F18081882311F180859185009795
S1130650F1F0662339F022812130C9F401979187A2
S1130660808706C02281222391F401979187808795
S113067080859185009759F481E0838386819781F1
S1130680009719F081E0818301C0118210820895DE
S1130690FC01108211826283138255834483378361
S11306A026839CCFFC018081882341F481E08083F0
S11306B0118213828481958191878087CF018ECFA7
S11306C0FC01108211820895CF93DF93CDB7DEB77A
S11306D027970FB6F894DEBF0FBECDBF0DE112E031
S11306E00F2EF4E1AF2EBB24F02DA00EB11EF801A5
S11306F011921192EA15FB05D9F7C4D097D144247D
S113070055243324702E612E0F2EFDE18F2EF2E03E
S11307109F2EF02D9DDD882309F03BD203DE882334
S113072089F181E392E060E8AE014A5F5F4F9E0188
S11307302C5F3F4F8E010D5F1F4FEE24FF24689402
S1130740E1F8EC0EFD1E6E010894C11CD11CF0DD15
S1130750082F8B818823B1F0A3DE2E813F8182177D
S1130760930739F08FEF2F3F380719F096DE88236F
S113077049F06C817D818E819F81402F50E021E37F
S113078032E0C6D1A5D0DC01CB01409118025091D2
S1130790190260911A0270911B02481759076A07DF
S11307A07B0778F595D0DC01CB0188519C4FAF4F86
S11307B0BF4F8093180290931902A0931A02B0932A
S11307C01B02072D162DD8018D919D918D0161E09D
S11307D036DF0A151B05B9F70894411C511CB8EE05
S11307E04B16B3E05B0668F0072D162DF8018191D6
S11307F091918F0160E023DFA016B106B9F744247C
S11308005524A72DB62D00E010E0ED91FD91309711
S113081071F18381882359F1CF0122D1C801880F56
S1130820991F880D991DDC01ED91FC91119713829C
S11308308181882341F086819781009721F09187F7
S1130840808781E0808311828CDC882331F033201F
S113085021F4AAD1332433945DCF87DC882309F4AF
S113086059CF332009F456CFA0D1332453CF0F5F8F
S11308701F4F0A30110549F6E7CF60E072E18AE7BD
S113088090E008951092800081E08093810010929E
S11308908200109285001092840010926F000895D7
S11308A0CF93DF93EC01EEDFD0938500C0938400F7
S11308B0DF91CF91089581E0B09B80E0882311F00F
S11308C091E096BB089580918400909185000895ED
S11308D0CF92DF92EF92FF92C0908400D090850077
S11308E0D694C794D694C794D694C794EE24FF2480
S11308F0E2DF8823A1F08091B1029091B202A0912D
S1130900B302B091B4028050904EAF4FBF4F80936A
S1130910B1029093B202A093B302B093B402809157
S1130920B1029091B202A091B302B091B402C80E88
S1130930D91EEA1EFB1E6C2D7D2D8E2D9F2DFF9042
S1130940EF90DF90CF9008958F929F92AF92BF92D5
S1130950CF92DF92EF92FF924C01AA24BB24880C21
S1130960991CAA1CBB1C880C991CAA1CBB1C880CB7
S1130970991CAA1CBB1C80E0881680E0980681E0C4
S1130980A80680E0B80678F17501640180E090E083
S113099087DF80E090E0AFEFBFEFC80ED91EEA1EFC
S11309A0FB1E89DF8823E9F390E0C91690E0D9069D
S11309B091E0E90690E0F90648F780E090E0AFEFB7
S11309C0BFEF880E991EAA1EBB1EB5018827992762
S11309D020E030E04FEF5FEFE9D0DC01CB01880E7F
S11309E0991EAA1EBB1EC4018095909559DF63DF32
S11309F08823E9F3FF90EF90DF90CF90BF90AF9002
S1130A009F908F900895CF93DF93EC0182349105EA
S1130A1040F088EE9DEF98DFC154D040C234D10538
S1130A20C0F7CE0191DFDF91CF910895A2DB96DB71
S1130A3061E083E090E0BCDB81E012DDF7DB60E89D
S1130A4075E280E090E031DD24E630E048EE53E0EA
S1130A5061E086EB92E01CDE86EB92E023CE089503
S1130A60FF920F931F93CF93DF9388E593E0E0E524
S1130A70F3E01192E817F907E1F73DC0A1DD89938E
S1130A80F801F08083E07CDBF1E0FF1238C0809154
S1130A90500390E090934303809342038091520368
S1130AA090E090934503809344032091540330E0F5
S1130AB030934703209346039093C1028093C0026E
S1130AC082E05EDB8091B50281111CC081E08093DD
S1130AD0B50286E0E2E4F3E0A2ECB2E001900D920C
S1130AE08A95E1F7409142035091430366E082EC1A
S1130AF092E0B3DB07C0C0E5D3E004E513E05ADDC0
S1130B008111BCCFDF91CF911F910F91FF90089578
S1130B10CF93DF93CDB7DEB728970FB6F894DEBF37
S1130B200FBECDBFF901808190E09093490380937B
S1130B304803228130E030934B0320934A032481FD
S1130B4030E030934D0320934C032091C002309148
S1130B50C10282179307A1F481E012DB8BE190E0DC
S1130B6090934F0380934E0388E0E8E4F3E0DE01C2
S1130B70119601900D928A95E1F7CE0101960CDD54
S1130B8028960FB6F894DEBF0FBECDBFDF91CF918C
S1130B9008951092B502E2ECF2E082E493E011923F
S1130BA0E817F907E1F7089508950895DB018F9395
S1130BB09F932DD0BF91AF91A29F800D911DA39FB4
S1130BC0900DB29F900D11240895A1E21A2EAA1B34
S1130BD0BB1BFD010DC0AA1FBB1FEE1FFF1FA217E9
S1130BE0B307E407F50720F0A21BB30BE40BF50BE6
S1130BF0661F771F881F991F1A9469F7609570956F
S1130C00809590959B01AC01BD01CF01089509D059
S1130C10A59F900DB49F900DA49F800D911D11244C
S1130C200895A29FB001B39FC001A39F700D811DC1
S1130C301124911DB29F700D811D1124911D0895E1
S1070C40F894FFCF52
S1130C44FF0000000300000000C502E602000000EB
S9030000FC
