S00C00004F70656E2E7372656386
S11300008FC00000ABC00000A9C00000A7C0000062
S1130010A5C00000A3C00000A1C000009FC0000054
S11300209DC000009BC0000099C0000097C0000064
S113003095C0000093C0000091C000008FC0000074
S11300408DC000008BC0000089C0000087C0000084
S113005085C0000083C0000081C000007FC0000094
S11300607DC000007BC0000079C0000077C00000A4
S113007075C0000073C0000071C000006FC00000B4
S11300806DC000006BC0000069C0000067C00000C4
S113009065C0000063C0000061C000005FC00000D4
S11300A05DC000005BC0000059C0000057C00000E4
S11300B055C0000053C0000051C000004FC00000F4
S11300C04DC000004BC0000049C0000047C0000004
S11300D045C0000043C0000041C000003FC0000014
S11300E03DC000003BC0000039C0000037C0000024
S11300F035C0000033C0000031C000002FC0000034
S11301002DC000002BC0000029C0000027C0000043
S113011025C0000023C0000021C000001FC0000053
S113012011241FBECFEFD1E4DEBFCDBF12E0A0E0AB
S1130130B2E0EAE9F6E100E00BBF02C007900D92DD
S1130140A63CB107D9F724E0A6ECB2E001C01D92A9
S1130150A731B207E1F7B9D20C944B0B51CF6D988C
S1130160759A089581E0659980E00895FBDF91E038
S1130170892708956A9A6B9A6C9A729A739A749AF8
S11301800895813011F472980895823011F47398AF
S11301900895833009F474980895813011F4729AA3
S11301A00895823011F4739A0895833009F4749A8F
S11301B00895FF920F931F93CF93DF93082F192F66
S11301C0F62EC9E3D1E0188286E090E0BED381E048
S11301D08883809141018093C602882351F488E08A
S11301E0809342018EEF91E0B0D3809141018093DE
S11301F0C6028BE0809348018FEF80934F010093F8
S1130200C7021093C8020093600110936101109219
S1130210620110926301809141018093C602F092C1
S1130220C902DF91CF911F910F91FF9008958FEF35
S113023080934F0186E080934201E1E4F1E0808104
S11302408F718630E1F7ECE4F1E08081806880838F
S113025008958091CA021092CA0208952FEF209344
S11302604F01209141012F71293041F029E0209361
S11302704201E1E4F1E020812930E9F7262F235FF0
S11302802093800120E22093810122E220938201C5
S113029021E02093830110928401109285015093F0
S11302A08601409387011092880110928901209160
S11302B0C80220938A012091C70220938B016623F0
S11302C091F0A82FB92F615070E0CB0183579E4F56
S11302D0ECE8F1E02D912193E817F907D9F7FB0138
S11302E0E357FE4F02C0ECE8F1E01082118282E095
S11302F080934201EFE4F1E0808186FFFDCF8FEF30
S113030080934F0186E080934201E1E4F1E0808133
S11303108F718630E1F781E08093CA0280914101B8
S11303208093C602089590914F0181E093FF80E08D
S113033008958F929F92AF92BF92CF92DF92EF92E5
S1130340FF920F931F93CF93782FC92F5A0149011E
S113035040917B018FEF80930002EFE4F1E0808114
S113036082FFFDCF0CC0808190E08F7190702817C0
S1130370390764F480818F718093000204C0AFE474
S1130380B1E0E6E4F1E02091000230E08C9183FFDB
S1130390EACF842F8B50462F861708F4482F3091CC
S11303A0850120E08091860190E0822B932BF5015A
S11303B0918380833091890120E080918A0190E0CB
S11303C0822B932BF40191838083442399F0A72FEC
S11303D0BC2F242F215030E0C90184579E4FEBE8F5
S11303E0F1E051915D93E817F907D9F7F901E45762
S11303F0FE4F02C0EBE8F1E080818093CB02F6016E
S11304008083809147018093CC02F701808380919F
S11304104601881F8827881FF8018083E1E4F1E002
S113042080818F718630E1F7ECE4F1E080818F7791
S113043080838081806880838FEF80934F018091D7
S113044041018093C602842F8250CF911F910F9156
S1130450FF90EF90DF90CF90BF90AF909F908F90E0
S11304600895E5E4F1E090818F70907F982B90835C
S11304700895809146018F7190910002981710F4AD
S11304808093000208958091000210920002089562
S11304908091CC0208958091CB0208958091C90285
S11304A008958091C7029091C80208954F925F9277
S11304B06F927F928F929F92AF92BF92CF92DF9270
S11304C0EF92FF924B015C01D9D12B013C0168945E
S11304D013F876946794579447941694D1F70F2E93
S11304E0FAE0CF2EF0E0DF2EF0E0EF2EF0E0FF2E6A
S11304F0F02DC501B401A70196014ED5C301B20187
S11305004BD5CA01B9016B5F7F4F8F4F9F4FA70136
S1130510960142D5DA01C9010197A109B109E1ECBB
S1130520F0E010821092C00026E02093C200292F30
S11305302F702093C5008093C40088E1808381E0FC
S113054092E09093140480931304E3E1F4E0929313
S113055082939583848381E08093CD02FF90EF9012
S1130560DF90CF90BF90AF909F908F907F906F90CF
S11305705F904F9008958091CD020895E0ECF0E0F3
S1130580908195FFFDCF8093C6000895CF93C82F27
S1130590F5DF8C2F90E0CF910895CF93DF93EC019A
S11305A08881882329F02196E9DF89918823E1F75E
S11305B0DF91CF9108958091C000881F8827881FFC
S11305C00895F9DF8823E9F38091C6000895CF9355
S11305D0F8DFC82FD3DF8C2F90E0CF910895BC01B2
S11305E04091D3025091D4024817590741F1A5ED27
S11305F0B2E09D012E5E3F4FFD01819191918617DE
S11306009707E9F0E217F307C1F74115510541F0E7
S113061021E030E0A9018D919D91009759F402C029
S113062040E050E0FA01EE0FFF1FED52FD4F7183E1
S1130630608308952F5F3F4F2A30310559F708959D
S1130640FC01009729F18081882311F1808591852F
S11306500097F1F0662339F022812130C9F4019723
S11306609187808706C02281222391F40197918784
S1130670808780859185009759F481E08383868102
S11306809781009719F081E0818301C01182108263
S11306900895FC011082118262831382558344837E
S11306A0378326839CCFFC018081882341F481E039
S11306B08083118213828481958191878087CF0101
S11306C08ECFFC01108211820895CF93DF93CDB7B2
S11306D0DEB727970FB6F894DEBF0FBECDBF03ED8C
S11306E012E00F2EF4E1AF2EBB24F02DA00EB11EAC
S11306F0F80111921192EA15FB05D9F7C4D063D21F
S1130700442455243324702E612E0F2EF3ED8F2EA6
S1130710F2E09F2EF02D9DDD882309F090D303DEB7
S1130720882389F187EE92E060E8AE014A5F5F4F6B
S11307309E012C5F3F4F8E010D5F1F4FEE24FF245F
S11307406894E1F8EC0EFD1E6E010894C11CD11CE6
S1130750F0DD082F8B818823B1F0A3DE2E813F8149
S11307608217930739F08FEF2F3F380719F096DE81
S1130770882349F06C817D818E819F81402F50E0D8
S113078027EE32E05CD2A5D0DC01CB014091CE0251
S11307905091CF026091D0027091D102481759074D
S11307A06A077B0778F595D0DC01CB0188519C4F13
S11307B0AF4FBF4F8093CE029093CF02A093D0024D
S11307C0B093D102072D162DD8018D919D918D01E5
S11307D061E036DF0A151B05B9F70894411C511C6A
S11307E0B8EE4B16B3E05B0668F0072D162DF80142
S11307F0819191918F0160E023DFA016B106B9F7D2
S113080044245524A72DB62D00E010E0ED91FD9170
S1130810309771F18381882359F1CF01F1D1C80157
S1130820880F991F880D991DDC01ED91FC9111979A
S113083013828181882341F086819781009721F07A
S11308409187808781E0808311828CDC882331F05A
S1130850332021F427D3332433945DCF87DC8823DA
S113086009F459CF332009F456CF86D3332453CF18
S11308700F5F1F4F0A30110549F6E7CF60E072E1C0
S11308808AE790E008951092800081E080938100CF
S113089010928200109285001092840010926F00D2
S11308A00895CF93DF93EC01EEDFD0938500C093DE
S11308B08400DF91CF91089581E0B09B80E088238C
S11308C011F091E096BB0895809184009091850089
S11308D00895CF92DF92EF92FF92C0908400D0905F
S11308E08500D694C794D694C794D694C794EE241E
S11308F0FF24E2DF8823A1F08091670390916803CD
S1130900A0916903B0916A038050904EAF4FBF4FDE
S11309108093670390936803A0936903B0936A0379
S11309208091670390916803A0916903B0916A0371
S1130930C80ED91EEA1EFB1E6C2D7D2D8E2D9F2DFB
S1130940FF90EF90DF90CF9008958F929F92AF9297
S1130950BF92CF92DF92EF92FF924C01AA24BB2464
S1130960880C991CAA1CBB1C880C991CAA1CBB1CB7
S1130970880C991CAA1CBB1C80E0881680E0980691
S113098081E0A80680E0B80678F17501640180E092
S113099090E087DF80E090E0AFEFBFEFC80ED91E94
S11309A0EA1EFB1E89DF8823E9F390E0C91690E074
S11309B0D90691E0E90690E0F90648F780E090E076
S11309C0AFEFBFEF880E991EAA1EBB1EB501882784
S11309D0992720E030E04FEF5FEFCFD2DC01CB016D
S11309E0880E991EAA1EBB1EC4018095909559DFDE
S11309F063DF8823E9F3FF90EF90DF90CF90BF90FF
S1130A00AF909F908F900895CF93DF93EC01823441
S1130A10910540F088EE9DEF98DFC154D040C23478
S1130A20D105C0F7CE0191DFDF91CF910895809178
S1130A303C01809379031092FB031092FA0380E047
S1130A4090E0EFE3F1E0DC01A15FBD4F8C91808386
S1130A508091FA039091FB0301969093FB0380939A
S1130A60FA038031910578F310923C011092FB0354
S1130A701092FA03E0E0F0E0AEE3B1E0EF5BFD4F8B
S1130A8080818C938091FA039091FB03019690935B
S1130A90FB038093FA038031910510F4FC01EECF3F
S1130AA080E880933C01EDE3F1E0808180FFFDCF9D
S1130AB01092FB031092FA03EFE1F2E0AF012FE290
S1130AC032E0AEE3B1E08C918193CF01841B950BAE
S1130AD09093FB038093FA03E217F307A1F71092B4
S1130AE0FB031092FA03EFE0F2E0AF012FE132E0F2
S1130AF0AFE3B1E08C918193CF01841B950B90936C
S1130B00FB038093FA03E217F307A1F710922F0275
S1130B10089580913C01809379031092FB03109215
S1130B20FA0380E090E0EFE3F1E0DC01A15FBD4F68
S1130B308C9180838091FA039091FB0301969093AA
S1130B40FB038093FA038031910578F388E0809366
S1130B503C011092FB031092FA03E0E0F0E0AEE3F4
S1130B60B1E0E15EFD4F80818C938091FA03909116
S1130B70FB0301969093FB038093FA038031910564
S1130B8010F4FC01EECF88E880933C01EDE3F1E042
S1130B90808180FFFDCF1092FB031092FA03E0E303
S1130BA0F2E0AF0120E432E0AEE3B1E08C91819356
S1130BB0CF01841B950B9093FB038093FA03E217F8
S1130BC0F307A1F70895D6DACADA60E081E090E08D
S1130BD0F0DA81E046DC2BDB60E875E280E090E04F
S1130BE065DC84E592E068D224E630E048EE53E028
S1130BF061E08DE693E04DDD8DE693E054CD0895FC
S1130C0080916B038823D1F080916C03811116C00D
S1130C1081E080936C0310926B0385E1ECEFF3E0C9
S1130C20AAE7B3E001900D928A95E1F74091FC03A5
S1130C305091FD0365E18AE793E010CB0895EF92AC
S1130C40FF920F931F93CF93DF93CDB7DEB76197D6
S1130C500FB6F894DEBF0FBECDBF8B0145305105F2
S1130C605CF0F9013496DE011196240F351F819151
S1130C708D93E217F307D9F7198AD9DEFE0131966D
S1130C80CE014296AFE1B2E021912D93E817F90726
S1130C90D9F73FDF8AE592E09F938F93FCD11092BE
S1130CA0FB031092FA030F900F9080E090E00F2E58
S1130CB0F6E6EF2EF2E0FF2EF02DFC01E15EFD4F93
S1130CC080811F928F93FF92EF92E5D18091FA0376
S1130CD09091FB0301969093FB038093FA030F908A
S1130CE00F900F900F908031910538F388E892E0CF
S1130CF0E3D180E392E09F938F938CE692E09F93FD
S1130D008F93C9D16AE872E080E392E0A6D10F9094
S1130D100F900F900F90892B39F481E03EDA82E036
S1130D203CDA83E02EDA7EC06BE972E080E392E085
S1130D3094D1892B39F483E030DA82E02EDA81E031
S1130D4020DA70C080E392E062D1DC01CB0101962D
S1130D50A11DB11DBF93AF939F938F938CEA92E033
S1130D609F938F930F2EF1E4EF2EF2E0FF2EF02DE0
S1130D70FF92EF92CED15BDEFF92EF9280EB92E096
S1130D809F938F9388D18AE592E09F938F9383D129
S1130D901092FB031092FA030FB6F894DEBF0FBE55
S1130DA0CDBF80E090E00F2EF6E6EF2EF2E0FF2EAE
S1130DB0F02DFC01E15EFD4F80811F928F93FF9225
S1130DC0EF9269D18091FA039091FB03019690937D
S1130DD0FB038093FA030F900F900F900F908031D4
S1130DE0910538F387E892E09F938F9354D1109341
S1130DF0FD030093FC0381E090E09093FF03809354
S1130E00FE03A0E0B4E080E392E00F900F90EFE1E6
S1130E10F2E021912D93E817F907D9F77ADE81E002
S1130E2080936B0361960FB6F894DEBF0FBECDBFFF
S1130E30DF91CF911F910F91FF90EF900895109241
S1130E406C03EAE7F3E08AEF93E01192E817F907FD
S1130E50E1F71092FD031092FC031092FF0310922D
S1130E60FE03E0E0F4E081E194E01192E817F90771
S1130E70E1F7E1E4F2E082E592E01192E817F90784
S1130E80E1F7EFE1F2E080E392E01192E817F9076D
S1130E90E1F7E0E3F2E081E492E01192E817F90768
S1130EA0E1F70895CF93DF9380915202909153021A
S1130EB09093FD038093FC0381E090E09093FF0303
S1130EC08093FE0381E1E5EBF2E0A1E4B2E001905E
S1130ED00D928A95E1F7ABDD81E492E09F938F93C5
S1130EE080EB92E09F938F93D6D08AE592E09F9314
S1130EF08F93D1D01092FB031092FA030F900F90AE
S1130F000F900F900F900F9080E090E0C6E6D2E033
S1130F10FC01E15EFD4F80811F928F93DF93CF939D
S1130F20BAD08091FA039091FB0301969093FB034E
S1130F308093FA030F900F900F900F9080319105DA
S1130F4038F388E892E0B8D0EFE1F2E0A0E0B4E052
S1130F5080E392E021912D93E817F907D9F781E016
S1130F6080936B03D6DD83E018D982E00AD981E04F
S1130F7014D9DF91CF9108950895DB018F939F9346
S1130F802DD0BF91AF91A29F800D911DA39F900D75
S1130F90B29F900D11240895A1E21A2EAA1BBB1B27
S1130FA0FD010DC0AA1FBB1FEE1FFF1FA217B30731
S1130FB0E407F50720F0A21BB30BE40BF50B661F47
S1130FC0771F881F991F1A9469F76095709580950B
S1130FD090959B01AC01BD01CF01089509D0A59F57
S1130FE0900DB49F900DA49F800D911D1124089520
S1130FF0A29FB001B39FC001A39F700D811D112456
S1131000911DB29F700D811D1124911D08951F9390
S1131010FC0199278827BC01E89411911032E9F367
S1131020193010F01E30C8F31B3249F01D3241F460
S1131030689405C01BD0610F711D811D911D119114
S113104010531A30B8F33EF49095809570956195DD
S11310507F4F8F4F9F4F1F910895FB01DC018D91AE
S1131060019080190110D9F3990B0895592F482F35
S1131070372F262F660F771F881F991F660F771F3C
S1131080881F991F620F731F841F951F660F771F98
S1131090881F991F0895CF93DF93CDB7DEB7FE0164
S11310A0359661917191AF0180911304909114046C
S11310B05ED0DF91CF9108950F931F93CF93DF9369
S11310C0E0911304F0911404238121FF1BC0EC016F
S11310D000E010E089916091130470911404DB0125
S11310E01896ED91FC911997882331F00995892B75
S11310F089F30FEF1FEFEECF8AE00995892B11F4E6
S1131100C80102C08FEF9FEFDF91CF911F910F9124
S113111008950F931F93CF93DF93CDB7DEB72E9728
S11311200FB6F894DEBF0FBECDBF0D891E8986E0D1
S11311308C831A8309838FEF9FE79E838D83AE018F
S1131140475E5F4F6F89788DCE01019610D0EF8195
S1131150F885E00FF11F10822E960FB6F894DEBFCB
S11311600FBECDBFDF91CF911F910F9108952F92A4
S11311703F924F925F926F927F928F929F92AF9223
S1131180BF92CF92DF92EF92FF920F931F93CF9370
S1131190DF93CDB7DEB72C970FB6F894DEBF0FBE42
S11311A0CDBF7C016B018A01FC0117821682838109
S11311B081FFB0C1CE0101964C01F7019381F60184
S11311C093FD859193FF81916F01882309F49EC15A
S11311D0853239F493FD859193FF81916F018532B6
S11311E021F4B70190E0C7D1E8CF512C312C20E095
S11311F02032A0F48B3269F030F4803259F083321B
S113120069F420612CC08D3239F0803339F42160C7
S113121026C02260246023C0286021C027FD27C087
S113122030ED380F3A3078F426FF06C0FAE05F9EBE
S1131230300D1124532E13C08AE0389E300D112432
S1131240332E20620CC08E3221F426FD5FC120644F
S113125006C08C3611F4206802C0883641F4F601C9
S113126093FD859193FF81916F018111C1CF982FD7
S11312709F7D9554933028F40C5F1F4FFFE3F9834F
S11312800DC0833631F0833771F0833509F057C0D0
S113129021C0F801808189830E5F1F4F4424439449
S11312A0512C540114C03801F2E06F0E711CF80186
S11312B0A080B18026FF03C0652D70E002C06FEFEF
S11312C07FEFC5012C874CD12C0183012C852F770E
S11312D0222E16C03801F2E06F0E711CF801A080B6
S11312E0B18026FF03C0652D70E002C06FEF7FEF71
S11312F0C5012C872AD12C012C852068222E83013C
S113130023FC19C0832D90E048165906A0F4B701B8
S113131080E290E030D13A94F5CFF50127FC859135
S113132027FE81915F01B70190E025D131103A94F5
S1131330F1E04F1A51084114510479F7DEC08436A4
S113134011F0893631F5F80127FF07C060817181FA
S1131350828193810C5F1F4F08C06081718188274F
S113136077FD8095982F0E5F1F4F2F76B22E97FF33
S113137009C090958095709561957F4F8F4F9F4FD1
S11313802068B22E2AE030E0A40127D1A82EA818A4
S113139043C0853729F42F7EB22E2AE030E025C0E1
S11313A0F22FF97FBF2E8F36C1F018F4883579F00B
S11313B0ADC0803719F0883721F0A8C02F2F2061E5
S11313C0B22EB4FE0DC08B2D8460B82E09C024FF4C
S11313D00AC09F2F9660B92E06C028E030E005C0F1
S11313E020E130E002C020E132E0F801B7FE07C09E
S11313F060817181828193810C5F1F4F06C060817F
S1131400718180E090E00E5F1F4FA401E6D0A82E0A
S1131410A818FB2DFF77BF2EB6FE0BC02B2D2E7FF9
S1131420A51450F4B4FE0AC0B2FC08C02B2D2E7EC5
S113143005C07A2C2B2D03C07A2C01C0752C24FFF7
S11314400DC0FE01EA0DF11D8081803311F4297E67
S113145009C022FF06C07394739404C0822F867857
S113146009F0739423FD12C020FF06C05A2C731494
S113147018F4530C5718732C731460F4B70180E2FA
S113148090E02C8778D073942C85F6CF731410F4E5
S1131490371801C0312C24FF11C0B70180E390E05C
S11314A02C8769D02C8522FF16C021FF03C088E554
S11314B090E002C088E790E0B7010CC0822F8678E4
S11314C051F021FD02C080E201C08BE227FD8DE2D4
S11314D0B70190E050D0A51430F4B70180E390E058
S11314E04AD05A94F8CFAA94F401EA0DF11D8081F0
S11314F0B70190E040D0A110F6CF332009F45DCEBF
S1131500B70180E290E037D03A94F7CFF7018681B3
S1131510978102C08FEF9FEF2C960FB6F894DEBF31
S11315200FBECDBFDF91CF911F910F91FF90EF9030
S1131530DF90CF90BF90AF909F908F907F906F90EF
S11315405F904F903F902F900895FC01059061505B
S113155070400110D8F7809590958E0F9F1F0895C5
S1131560FC016150704001900110D8F7809590956E
S11315708E0F9F1F08950F931F93CF93DF93182F00
S1131580092FEB018B8181FD03C08FEF9FEF20C0FA
S113159082FF10C04E815F812C813D814217530729
S11315A07CF4E881F9819F012F5F3F4F39832883C1
S11315B0108306C0E885F985812F0995892B29F7C1
S11315C02E813F812F5F3F4F3F832E83812F902FAA
S11315D0DF91CF911F910F910895FA01AA27283026
S11315E051F1203181F1E8946F936E7F6E5F7F4FEC
S11315F08F4F9F4FAF4FB1E03ED0B4E03CD0670F68
S1131600781F891F9A1FA11D680F791F8A1F911DBA
S1131610A11D6A0F711D811D911DA11D20D009F40A
S113162068943F912AE0269F11243019305D31934C
S1131630DEF6CF010895462F4770405D4193B3E035
S11316400FD0C9F7F6CF462F4F70405D4A3318F0DC
S1131650495D31FD4052419302D0A9F7EACFB4E08D
S1131660A6959795879577956795BA95C9F7009745
S11316706105710508959B01AC010A2E06945795E6
S1131680479537952795BA95C9F7620F731F841F3D
S10D1690951FA01D0895F894FFCFE4
S113169AFF0000000300000000C602E70200004148
S11316AA4141414141414141414141414141415FFE
S11316BA5F5F5F5F5F5F5F5F5F5F5F5F5F5F0000EA
S11316CA2E2E2E2E2E2E2E2E2E2E2E2E2E2E2E2E2C
S11316DA00546869732069732061207465737421E6
S11316EA21000200746573740D0063727970746F5B
S11316FA746578743D002025303278002020204417
S113170A656372797074656420706C61696E74655E
S113171A78743D222573220A0D004E41434B4E41F3
S113172A434B4E41434B4E41434B0041434B414390
S113173A4B616341434B41434B616300256C750024
S113174A25730D0A004F50454E4F50454E4F504594
S109175A4E4F50454E0005
S9030000FC
