:100000008FC00000ABC00000A9C00000A7C0000066
:10001000A5C00000A3C00000A1C000009FC0000058
:100020009DC000009BC0000099C0000097C0000068
:1000300095C0000093C0000091C000008FC0000078
:100040008DC000008BC0000089C0000087C0000088
:1000500085C0000083C0000081C000007FC0000098
:100060007DC000007BC0000079C0000077C00000A8
:1000700075C0000073C0000071C000006FC00000B8
:100080006DC000006BC0000069C0000067C00000C8
:1000900065C0000063C0000061C000005FC00000D8
:1000A0005DC000005BC0000059C0000057C00000E8
:1000B00055C0000053C0000051C000004FC00000F8
:1000C0004DC000004BC0000049C0000047C0000008
:1000D00045C0000043C0000041C000003FC0000018
:1000E0003DC000003BC0000039C0000037C0000028
:1000F00035C0000033C0000031C000002FC0000038
:100100002DC000002BC0000029C0000027C0000047
:1001100025C0000023C0000021C000001FC0000057
:1001200011241FBECFEFD1E4DEBFCDBF12E0A0E0AF
:10013000B2E0E2ECF8E100E00BBF02C007900D92E4
:10014000AC3CB107D9F724E0ACECB2E001C01D92A1
:10015000A232B207E1F792D30C945F0C51CF6D98A5
:10016000759A089581E0659980E00895FBDF91E03C
:100170008927089560E072E18AE790E0089510927F
:10018000800081E0809381001092820010928500AF
:100190001092840010926F000895CF93DF93EC01CA
:1001A000EEDFD0938500C0938400DF91CF91089556
:1001B00081E0B09B80E0882311F091E096BB089528
:1001C00080918400909185000895CF92DF92EF9204
:1001D000FF92C0908400D0908500D694C794D694A6
:1001E000C794D694C794EE24FF24E2DF8823A1F0BD
:1001F0008091CC029091CD02A091CE02B091CF021D
:100200008050904EAF4FBF4F8093CC029093CD0261
:10021000A093CE02B093CF028091CC029091CD02F8
:10022000A091CE02B091CF02C80ED91EEA1EFB1ECD
:100230006C2D7D2D8E2D9F2DFF90EF90DF90CF9018
:1002400008958F929F92AF92BF92CF92DF92EF92DA
:10025000FF924C01AA24BB24880C991CAA1CBB1C2D
:10026000880C991CAA1CBB1C880C991CAA1CBB1CC2
:1002700080E0881680E0980681E0A80680E0B80655
:1002800078F17501640180E090E087DF80E090E024
:10029000AFEFBFEFC80ED91EEA1EFB1E89DF882311
:1002A000E9F390E0C91690E0D90691E0E90690E004
:1002B000F90648F780E090E0AFEFBFEF880E991E97
:1002C000AA1EBB1EB5018827992720E030E04FEF1A
:1002D0005FEF14D7DC01CB01880E991EAA1EBB1E4E
:1002E000C4018095909559DF63DF8823E9F3FF907F
:1002F000EF90DF90CF90BF90AF909F908F90089538
:10030000CF93DF93EC018234910540F088EE9DEFAE
:1003100098DFC154D040C234D105C0F7CE0191DF7F
:10032000DF91CF9108956A9A6B9A6C9A729A739A38
:10033000749A0895813011F472980895823011F4FE
:1003400073980895833009F474980895813011F4F6
:10035000729A0895823011F4739A0895833009F4E3
:10036000749A0895FF920F931F93CF93DF93082FF2
:10037000192FF62EC9E3D1E0188286E090E061DF04
:1003800081E08883809141018093D002882351F4D9
:1003900088E0809342018EEF91E053DF809141012C
:1003A0008093D0028BE0809348018FEF80934F01C0
:1003B0000093D1021093D202009360011093610167
:1003C0001092620110926301809141018093D002EA
:1003D000F092D302DF91CF911F910F91FF9008957A
:1003E0008FEF80934F0186E080934201E1E4F1E0DA
:1003F00080818F718630E1F7ECE4F1E080818068E4
:10040000808308958091D4021092D40208952FEF32
:1004100020934F01209141012F71293041F029E0B3
:1004200020934201E1E4F1E020812930E9F7262F11
:10043000235F2093800120E22093810122E2209318
:10044000820121E0209383011092840110928501A2
:100450005093860140938701109288011092890180
:100460002091D20220938A012091D10220938B0106
:10047000662391F0A82FB92F615070E0CB0183570C
:100480009E4FECE8F1E02D912193E817F907D9F799
:10049000FB01E357FE4F02C0ECE8F1E0108211824D
:1004A00082E080934201EFE4F1E0808186FFFDCF9E
:1004B0008FEF80934F0186E080934201E1E4F1E009
:1004C00080818F718630E1F781E08093D402809142
:1004D00041018093D002089590914F0181E093FFF4
:1004E00080E008958F929F92AF92BF92CF92DF9259
:1004F000EF92FF920F931F93CF93782FC92F5A013A
:10050000490140917B018FEF80930002EFE4F1E01D
:10051000808182FFFDCF0CC0808190E08F71907050
:100520002817390764F480818F718093000204C01A
:10053000AFE4B1E0E6E4F1E02091000230E08C911C
:1005400083FFEACF842F8B50462F861708F4482F5D
:100550003091850120E08091860190E0822B932BE1
:10056000F501918380833091890120E080918A0197
:1005700090E0822B932BF40191838083442399F0A4
:10058000A72FBC2F242F215030E0C90184579E4F44
:10059000EBE8F1E051915D93E817F907D9F7F9011C
:1005A000E457FE4F02C0EBE8F1E080818093D50272
:1005B000F6018083809147018093D602F701808302
:1005C00080914601881F8827881FF8018083E1E415
:1005D000F1E080818F718630E1F7ECE4F1E0808119
:1005E0008F7780838081806880838FEF80934F0135
:1005F000809141018093D002842F8250CF911F912E
:100600000F91FF90EF90DF90CF90BF90AF909F90B1
:100610008F900895E5E4F1E090818F70907F982BA2
:1006200090830895809146018F71909100029817F0
:1006300010F480930002089580910002109200024D
:1006400008958091D60208958091D50208958091F1
:10065000D30208958091D1029091D20208954F92D1
:100660005F926F927F928F929F92AF92BF92CF9242
:10067000DF92EF92FF924B015C017CDD2B013C018C
:10068000689413F876946794579447941694D1F726
:100690000F2EFAE0CF2EF0E0DF2EF0E0EF2EF0E0AC
:1006A000FF2EF02DC501B401A701960136D5C30177
:1006B000B20133D5CA01B9016B5F7F4F8F4F9F4F96
:1006C000A70196012AD5DA01C9010197A109B1094B
:1006D000E1ECF0E010821092C00026E02093C2000E
:1006E000292F2F702093C5008093C40088E1808358
:1006F00081E092E090931F0480931E04EEE1F4E009
:10070000929382939583848381E08093D702FF90B4
:10071000EF90DF90CF90BF90AF909F908F907F90A1
:100720006F905F904F9008958091D7020895E0EC0C
:10073000F0E0908195FFFDCF8093C6000895CF93A0
:10074000C82FF5DF8C2F90E0CF910895CF93DF93E2
:10075000EC018881882329F02196E9DF899188239B
:10076000E1F7DF91CF9108958091C000881F88271D
:10077000881F0895F9DF8823E9F38091C600089562
:10078000CF93F8DFC82FD3DF8C2F90E0CF9108955F
:10079000BC014091DD025091DE024817590741F13A
:1007A000AFEDB2E09D012E5E3F4FFD018191919131
:1007B00086179707E9F0E217F307C1F741155105CE
:1007C00041F021E030E0A9018D919D91009759F40D
:1007D00002C040E050E0FA01EE0FFF1FE352FD4F70
:1007E0007183608308952F5F3F4F2A30310559F799
:1007F0000895FC01009729F18081882311F18085FB
:1008000091850097F1F0662339F022812130C9F4F7
:1008100001979187808706C02281222391F4019756
:100820009187808780859185009759F481E0838343
:1008300086819781009719F081E0818301C0118240
:1008400010820895FC011082118262831382558305
:100850004483378326839CCFFC018081882341F425
:1008600081E08083118213828481958191878087C2
:10087000CF018ECFFC01108211820895CF93DF93B8
:10088000CDB7DEB727970FB6F894DEBF0FBECDBF4A
:100890000DED12E00F2EF4E1AF2EBB24F02DA00ED3
:1008A000B11EF80111921192EA15FB05D9F767DC28
:1008B00088D1442455243324702E612E0F2EFDED53
:1008C0008F2EF2E09F2EF02D9DDD882309F0E3D3DB
:1008D00003DE882389F181EF92E060E8AE014A5F90
:1008E0005F4F9E012C5F3F4F8E010D5F1F4FEE2427
:1008F000FF246894E1F8EC0EFD1E6E010894C11C03
:10090000D11CF0DD082F8B818823B1F0A3DE2E816E
:100910003F818217930739F08FEF2F3F380719F087
:1009200096DE882349F06C817D818E819F81402FE6
:1009300050E021EF32E0B5D148DCDC01CB01409141
:10094000D8025091D9026091DA027091DB02481707
:1009500059076A077B0778F538DCDC01CB01885141
:100960009C4FAF4FBF4F8093D8029093D902A09372
:10097000DA02B093DB02072D162DD8018D919D91DF
:100980008D0161E036DF0A151B05B9F70894411C9B
:10099000511CB8EE4B16B3E05B0668F0072D162D20
:1009A000F801819191918F0160E023DFA016B106DB
:1009B000B9F744245524A72DB62D00E010E0ED91A1
:1009C000FD91309771F18381882359F1CF0116D1C0
:1009D000C801880F991F880D991DDC01ED91FC91CC
:1009E000119713828181882341F086819781009736
:1009F00021F09187808781E080831182B3DB882397
:100A000031F0332021F478D3332433945DCFAEDB3F
:100A1000882309F459CF332009F456CF6ED33324F9
:100A200053CF0F5F1F4F0A30110549F6E7CF809172
:100A30003C0180938003109202041092010480E034
:100A400090E0EFE3F1E0DC01AD5EBD4F8C9180837F
:100A50008091010490910204019690930204809386
:100A600001048031910578F310923C011092020448
:100A70001092010480E090E0EEE3F1E0DC01AB5B7A
:100A8000BD4F8C9180838091010490910204019666
:100A900090930204809301048031910578F380E8FB
:100AA00080933C01EDE3F1E0808180FFFDCF109267
:100AB00002041092010443E252E023E332E0FA011F
:100AC000AEE3B1E08C918193CF01841B950B9093A1
:100AD000020480930104E217F307A1F710920204C5
:100AE0001092010443E152E023E232E0FA01AFE365
:100AF000B1E08C918193CF01841B950B90930204FC
:100B000080930104E217F307A1F7109233020895CE
:100B100080913C01809380031092020410920104A2
:100B200080E090E0EFE3F1E0DC01AD5EBD4F8C9141
:100B300080838091010490910204019690930204B5
:100B4000809301048031910578F388E080933C0123
:100B5000109202041092010480E090E0EEE3F1E0D4
:100B6000DC01AD5DBD4F8C9180838091010490913B
:100B70000204019690930204809301048031910550
:100B800078F388E880933C01EDE3F1E0808180FF19
:100B9000FDCF109202041092010444E352E024E4D9
:100BA00032E0FA01AEE3B1E08C918193CF01841B76
:100BB000950B9093020480930104E217F307A1F7C9
:100BC000089503DBCB014AD3AEDBC9DA60E082E0F3
:100BD00090E0C8DB81E01EDD03DC60E875E280E0C8
:100BE00090E03DDD24E630E048EE53E061E082E74E
:100BF00093E028DE82E793E02FCE0895CF93DF9332
:100C000080917103882309F449C080917D0381118B
:100C100045C081E080937D031092710385E1E7E098
:100C2000F4E0A1E8B3E001900D928A95E1F786E542
:100C300092E09F938F9361D310920204109201046B
:100C40000F900F9080E090E0C2E6D2E0FC01E95FF7
:100C5000FB4F84811F928F93DF93CF934ED380916C
:100C60000104909102040196909302048093010480
:100C70000F900F900F900F908031910538F38CE812
:100C800092E09F938F9339D34091070450910804C9
:100C900065E181E893E0BBDB0F900F90DF91CF918E
:100CA00008958F929F92AF92BF92CF92DF92EF9270
:100CB000FF920F931F93CF93DF93CDB7DEB761976A
:100CC0000FB6F894DEBF0FBECDBF6B0145305105A6
:100CD0005CF0F9013496DE011196240F351F8191E5
:100CE0008D93E217F307D9F7198AA1DEFE01319639
:100CF00003E212E09E012E5E3F4FD80181918D9359
:100D0000E217F307D9F704DF88E692E09F938F9309
:100D1000F4D210920204109201040F900F9080E020
:100D200090E00F2EF2E6EF2EF2E0FF2EF02DFC0108
:100D3000ED5DFD4F80811F928F93FF92EF92DDD288
:100D40008091010490910204019690930204809393
:100D500001040F900F900F900F908031910538F3A0
:100D60008CE892E09F938F93C8D284E392E09F93A4
:100D70008F9384E792E09F938F93BFD26FE872E0E6
:100D800084E392E09CD20F900F900F900F900F9001
:100D90000F90892B09F07BC05ED2BC01990F880BA4
:100DA000990B2EEF3FEF40E050E0D9D16093030460
:100DB000709304048093050490930604E7E0F4E044
:100DC00021E030E03183208322E030E0338322834E
:100DD0009F938F937F936F9380EA92E09F938F937B
:100DE0000F2EF5E4EF2EF2E0FF2EF02DFF92EF92A2
:100DF00097D21DDEFF92EF9284EA92E09F938F9349
:100E00007CD288E692E09F938F9377D2109202046F
:100E1000109201040FB6F894DEBF0FBECDBF80E084
:100E200090E00F2EF2E6EF2EF2E0FF2EF02DFC0107
:100E3000ED5DFD4F80811F928F93FF92EF925DD207
:100E40008091010490910204019690930204809392
:100E500001040F900F900F900F908031910538F39F
:100E60008CE892E09F938F9348D2EBE0F4E02CE182
:100E700034E00F900F90D8018D918D018193E2178E
:100E8000F307C9F745DE81E080937103F1C084E385
:100E900092E0EFD18090030490900404A0900504A8
:100EA000B0900604BFEF8B1A9B0AAB0ABB0A681509
:100EB00079058A059B0509F078C080917C03882319
:100EC00049F081E043DA83E041DA82E03FDA1092D0
:100ED0007C0309C081E02EDA83E038DA82E036DA7A
:100EE00081E080937C03E7E0F4E0D182C08282E07D
:100EF00090E09383828381E1E9EAF2E0A5E4B2E045
:100F000001900D928A95E1F792DD85E492E09F933E
:100F10008F9384EA92E09F938F93EFD188E692E0DB
:100F20009F938F93EAD110920204109201040F90C4
:100F30000F900F900F900F900F9080E090E00F2E89
:100F4000F2E6EF2EF2E0FF2EF02DFC01ED5DFD4FFD
:100F500080811F928F93FF92EF92CFD180910104F5
:100F600090910204019690930204809301040F90E3
:100F70000F900F900F908031910538F38CE892E03C
:100F80009F938F93BAD1EBE0F4E02CE134E00F9023
:100F90000F90D8018D918D018193E217F307C9F766
:100FA00081E080937103B4DD63C0E7E0F4E081E0A9
:100FB00090E09183808382E090E09383828381E15B
:100FC000EAEBF2E0A5E4B2E001900D928A95E1F738
:100FD0002EDD85E492E09F938F9384EA92E09F93C5
:100FE0008F938BD188E692E09F938F9386D1109256
:100FF0000204109201040F900F900F900F900F9029
:101000000F9080E090E00F2EF2E6EF2EF2E0FF2E40
:10101000F02DFC01ED5DFD4F80811F928F93FF92BB
:10102000EF926BD18091010490910204019690930C
:101030000204809301040F900F900F900F90803165
:10104000910538F38CE892E09F938F9356D1EBE0B3
:10105000F4E02CE134E00F900F90D8018D918D01D8
:101060008193E217F307C9F781E08093710350DDA4
:1010700061960FB6F894DEBF0FBECDBFDF91CF9162
:101080001F910F91FF90EF90DF90CF90BF90AF90A6
:101090009F908F90089510927D03E1E8F3E081E046
:1010A00094E01192E817F907E1F7E7E0F4E0118224
:1010B000108213821282EBE0F4E08CE194E0119252
:1010C000E817F907E1F7E5E4F2E086E592E011922E
:1010D000E817F907E1F7E3E2F2E084E392E0119226
:1010E000E817F907E1F7E4E3F2E085E492E0119212
:1010F000E817F907E1F7089508950895DB018F9344
:101100009F9349D0BF91AF91A29F800D911DA39F46
:10111000900DB29F900D11240895A1E21A2EAA1BE2
:10112000BB1BFD010DC0AA1FBB1FEE1FFF1FA21797
:10113000B307E407F50720F0A21BB30BE40BF50B94
:10114000661F771F881F991F1A9469F7609570951D
:10115000809590959B01AC01BD01CF010895052EAE
:1011600097FB16F400940FD057FD05D0D6DF07FC8F
:1011700002D046F408C050954095309521953F4FD8
:101180004F4F5F4F089590958095709561957F4F73
:101190008F4F9F4F089509D0A59F900DB49F900D3C
:1011A000A49F800D911D11240895A29FB001B39FAB
:1011B000C001A39F700D811D1124911DB29F700D60
:1011C000811D1124911D08958F929F92AF92BF921D
:1011D000CF92DF92EF92FF92CF93DF93EC01688181
:1011E00079818A819B81611571058105910521F4C1
:1011F00064E279ED8BE597E02DE133EF41E050E0DB
:10120000AEDF49015A019B01AC01A7EAB1E4C3DF9B
:101210006B017C01ACEEB4EFA50194014CD3DC0171
:10122000CB018C0D9D1DAE1DBF1DB7FF03C00197E7
:10123000A109B04888839983AA83BB839F77DF91F4
:10124000CF91FF90EF90DF90CF90BF90AF909F90A5
:101250008F900895B9CF8FE092E0B6CFA0E0B0E0D4
:1012600080930F0290931002A0931102B093120288
:1012700008951F93FC0199278827BC01E8941191D8
:101280001032E9F3193010F01E30C8F31B3249F068
:101290001D3241F4689405C01BD0610F711D811D82
:1012A000911D119110531A30B8F33EF4909580952A
:1012B000709561957F4F8F4F9F4F1F910895FB0150
:1012C000DC018D91019080190110D9F3990B0895DB
:1012D000592F482F372F262F660F771F881F991FEA
:1012E000660F771F881F991F620F731F841F951F3A
:1012F000660F771F881F991F0895CF93DF93CDB78F
:10130000DEB7AE014B5F5F4FFA0161917191AF01A2
:1013100080911E0490911F0432D0DF91CF910895E7
:101320000F931F93CF93DF93CDB7DEB72E970FB6F2
:10133000F894DEBF0FBECDBF0D891E8986E08C8379
:101340001A8309838FEF9FE79E838D83AE01475EEB
:101350005F4F6F89788DCE01019611D02F8138852E
:10136000F801E20FF31F10822E960FB6F894DEBF3D
:101370000FBECDBFDF91CF911F910F9108952F9296
:101380003F924F925F926F927F928F929F92AF9215
:10139000BF92CF92DF92EF92FF920F931F93CF9362
:1013A000DF93CDB7DEB72C970FB6F894DEBF0FBE34
:1013B000CDBF7C016B018A01FC01178216828381FB
:1013C00081FFB0C1CE0101964C01F7019381F60176
:1013D00093FD859193FF81916F01882309F49EC14C
:1013E000853239F493FD859193FF81916F018532A8
:1013F00021F4B70190E0C7D1E8CF512C312C20E087
:101400002032A0F48B3269F030F4803259F083320C
:1014100069F420612CC08D3239F0803339F42160B9
:1014200026C02260246023C0286021C027FD27C079
:1014300030ED380F3A3078F426FF06C0FAE05F9EB0
:10144000300D1124532E13C08AE0389E300D112424
:10145000332E20620CC08E3221F426FD5FC1206441
:1014600006C08C3611F4206802C0883641F4F601BB
:1014700093FD859193FF81916F018111C1CF982FC9
:101480009F7D9554933028F40C5F1F4FFFE3F98341
:101490000DC0833631F0833771F0833509F057C0C2
:1014A00021C0F801808189830E5F1F4F442443943B
:1014B000512C540114C03801F2E06F0E711CF80178
:1014C000A080B18026FF03C0652D70E002C06FEFE1
:1014D0007FEFC5012C874CD12C0183012C852F7700
:1014E000222E16C03801F2E06F0E711CF801A080A8
:1014F000B18026FF03C0652D70E002C06FEF7FEF63
:10150000C5012C872AD12C012C852068222E83012D
:1015100023FC19C0832D90E048165906A0F4B701AA
:1015200080E290E030D13A94F5CFF50127FC859127
:1015300027FE81915F01B70190E025D131103A94E7
:10154000F1E04F1A51084114510479F7DEC0843696
:1015500011F0893631F5F80127FF07C060817181EC
:10156000828193810C5F1F4F08C060817181072EBB
:10157000000C880B990B0E5F1F4F2F76722E97FF72
:1015800009C090958095709561957F4F8F4F9F4FC3
:101590002068722E2AE030E0A4012DD1A82EA818D0
:1015A00043C0853729F42F7EB22E2AE030E025C0D3
:1015B000F22FF97FBF2E8F36C1F018F4883579F0FD
:1015C000ADC0803719F0883721F0A8C02F2F2061D7
:1015D000B22EB4FE0DC08B2D8460B82E09C024FF3E
:1015E0000AC09F2F9660B92E06C028E030E005C0E3
:1015F00020E130E002C020E132E0F801B7FE07C090
:1016000060817181828193810C5F1F4F06C0608170
:10161000718180E090E00E5F1F4FA401ECD0A82EF6
:10162000A818FB2DFF777F2E76FE0BC0372D3E7F4F
:10163000A51450F474FE0AC072FC08C0372D3E7E1B
:1016400005C0BA2C372D03C0BA2C01C0B52C34FF0D
:101650000DC0FE01EA0DF11D8081803311F4397E49
:1016600009C032FF06C0B394B39404C0832F8678B8
:1016700009F0B39433FD12C030FF06C05A2CB314E6
:1016800018F4530C5B18B32CB31460F4B70180E268
:1016900090E03C8778D0B3943C85F6CFB31410F437
:1016A0003B1801C0312C34FF11C0B70180E390E03A
:1016B0003C8769D03C8532FF16C031FD03C088E706
:1016C00090E002C088E590E0B7010CC0832F8678D7
:1016D00051F031FF02C08BE201C080E237FD8DE2A4
:1016E000B70190E050D0A51430F4B70180E390E04A
:1016F0004AD05A94F8CFAA94F401EA0DF11D8081E2
:10170000B70190E040D0A110F6CF332009F45DCEB0
:10171000B70180E290E037D03A94F7CFF7018681A5
:10172000978102C08FEF9FEF2C960FB6F894DEBF23
:101730000FBECDBFDF91CF911F910F91FF90EF9022
:10174000DF90CF90BF90AF909F908F907F906F90E1
:101750005F904F903F902F900895FC01059061504D
:1017600070400110D8F7809590958E0F9F1F0895B7
:10177000FC016150704001900110D8F78095909560
:101780008E0F9F1F08950F931F93CF93DF93FB013D
:10179000238121FD03C08FEF9FEF28C022FF16C0D9
:1017A00046815781248135814217530744F4A08133
:1017B000B1819D012F5F3F4F318320838C93268120
:1017C00037812F5F3F4F3783268310C0EB01092FEE
:1017D000182F0084F185E02D0995892BE1F68E8183
:1017E0009F8101969F838E83812F902FDF91CF91D0
:1017F0001F910F910895FA01AA27283051F1203145
:1018000081F1E8946F936E7F6E5F7F4F8F4F9F4F94
:10181000AF4FB1E03ED0B4E03CD0670F781F891FD6
:101820009A1FA11D680F791F8A1F911DA11D6A0FA4
:10183000711D811D911DA11D20D009F468943F9157
:101840002AE0269F11243019305D3193DEF6CF0156
:101850000895462F4770405D4193B3E00FD0C9F71C
:10186000F6CF462F4F70405D4A3318F0495D31FD89
:101870004052419302D0A9F7EACFB4E0A6959795DC
:10188000879577956795BA95C9F7009761057105B2
:1018900008959B01AC010A2E0694579547953795FC
:1018A0002795BA95C9F7620F731F841F951FA01D56
:1018B0000895B7FF70CC6FDC821B930B0895F894EA
:0218C000FFCF58
:1018C200FF00000003000000009F03C003000001AE
:1018D20000000041414141414141414141414141B9
:1018E2004141415F5F5F5F5F5F5F5F5F5F5F5F5F60
:1018F2005F5F00002E2E2E2E2E2E2E2E2E2E2E2E00
:101902002E2E2E2E00546869732069732061207474
:1019120065737421210073656E64696E673D2020D2
:10192200200020253032780063727970746F7465FC
:1019320078743D0044656372797074656420706CDC
:1019420061696E746578743D222573220A0D004F19
:1019520050454E4F50454E4F50454E4F50454E000C
:10196200256C750025730D0A0041434B41434B61C1
:101972006341434B41434B6163004E41434B4E41F4
:0C198200434B4E41434B4E41434B000091
:00000001FF
