:100000008FC00000ABC00000A9C00000A7C0000066
:10001000A5C00000A3C00000A1C000009FC0000058
:100020009DC000009BC0000099C0000097C0000068
:1000300095C0000093C0000091C000008FC0000078
:100040008DC000008BC0000089C0000087C0000088
:1000500085C0000083C0000081C000007FC0000098
:100060007DC000007BC0000079C0000077C00000A8
:1000700075C0000073C0000071C000006FC00000B8
:100080006DC000006BC0000069C0000067C00000C8
:1000900065C0000063C0000061C000005FC00000D8
:1000A0005DC000005BC0000059C0000057C00000E8
:1000B00055C0000053C0000051C000004FC00000F8
:1000C0004DC000004BC0000049C0000047C0000008
:1000D00045C0000043C0000041C000003FC0000018
:1000E0003DC000003BC0000039C0000037C0000028
:1000F00035C0000033C0000031C000002FC0000038
:100100002DC000002BC0000029C0000027C0000047
:1001100025C0000023C0000021C000001FC0000057
:1001200011241FBECFEFD1E4DEBFCDBF13E0A0E0AE
:10013000B2E0EEE2F8E100E00BBF02C007900D92E2
:10014000A832B107D9F724E0A8E2B3E001C01D92BC
:10015000AD37B207E1F792D30C94150C51CF6D98DF
:10016000759A089581E0659980E00895FBDF91E03C
:100170008927089560E072E18AE790E0089510927F
:10018000800081E0809381001092820010928500AF
:100190001092840010926F000895CF93DF93EC01CA
:1001A000EEDFD0938500C0938400DF91CF91089556
:1001B00081E0B09B80E0882311F091E096BB089528
:1001C00080918400909185000895CF92DF92EF9204
:1001D000FF92C0908400D0908500D694C794D694A6
:1001E000C794D694C794EE24FF24E2DF8823A1F0BD
:1001F0008091280390912903A0912A03B0912B03A9
:100200008050904EAF4FBF4F8093280390932903A7
:10021000A0932A03B0932B03809128039091290384
:10022000A0912A03B0912B03C80ED91EEA1EFB1E13
:100230006C2D7D2D8E2D9F2DFF90EF90DF90CF9018
:1002400008958F929F92AF92BF92CF92DF92EF92DA
:10025000FF924C01AA24BB24880C991CAA1CBB1C2D
:10026000880C991CAA1CBB1C880C991CAA1CBB1CC2
:1002700080E0881680E0980681E0A80680E0B80655
:1002800078F17501640180E090E087DF80E090E024
:10029000AFEFBFEFC80ED91EEA1EFB1E89DF882311
:1002A000E9F390E0C91690E0D90691E0E90690E004
:1002B000F90648F780E090E0AFEFBFEF880E991E97
:1002C000AA1EBB1EB5018827992720E030E04FEF1A
:1002D0005FEF9FD6DC01CB01880E991EAA1EBB1EC4
:1002E000C4018095909559DF63DF8823E9F3FF907F
:1002F000EF90DF90CF90BF90AF909F908F90089538
:10030000CF93DF93EC018234910540F088EE9DEFAE
:1003100098DFC154D040C234D105C0F7CE0191DF7F
:10032000DF91CF9108956A9A6B9A6C9A729A739A38
:10033000749A0895813011F472980895823011F4FE
:1003400073980895833009F474980895813011F4F6
:10035000729A0895823011F4739A0895833009F4E3
:10036000749A0895FF920F931F93CF93DF93082FF2
:10037000192FF62EC9E3D1E0188286E090E061DF04
:1003800081E088838091410180932C03882351F47C
:1003900088E0809342018EEF91E053DF809141012C
:1003A00080932C038BE0809348018FEF80934F0163
:1003B00000932D0310932E030093600110936101AD
:1003C00010926201109263018091410180932C038D
:1003D000F0922F03DF91CF911F910F91FF9008951D
:1003E0008FEF80934F0186E080934201E1E4F1E0DA
:1003F00080818F718630E1F7ECE4F1E080818068E4
:1004000080830895809130031092300308952FEF78
:1004100020934F01209141012F71293041F029E0B3
:1004200020934201E1E4F1E020812930E9F7262F11
:10043000235F2093800120E22093810122E2209318
:10044000820121E0209383011092840110928501A2
:100450005093860140938701109288011092890180
:1004600020912E0320938A0120912D0320938B014C
:10047000662391F0A82FB92F615070E0CB0183570C
:100480009E4FECE8F1E02D912193E817F907D9F799
:10049000FB01E357FE4F02C0ECE8F1E0108211824D
:1004A00082E080934201EFE4F1E0808186FFFDCF9E
:1004B0008FEF80934F0186E080934201E1E4F1E009
:1004C00080818F718630E1F781E0809330038091E5
:1004D000410180932C03089590914F0181E093FF97
:1004E00080E008958F929F92AF92BF92CF92DF9259
:1004F000EF92FF920F931F93CF93782FC92F5A013A
:10050000490140917B018FEF80930002EFE4F1E01D
:10051000808182FFFDCF0CC0808190E08F71907050
:100520002817390764F480818F718093000204C01A
:10053000AFE4B1E0E6E4F1E02091000230E08C911C
:1005400083FFEACF842F8B50462F861708F4482F5D
:100550003091850120E08091860190E0822B932BE1
:10056000F501918380833091890120E080918A0197
:1005700090E0822B932BF40191838083442399F0A4
:10058000A72FBC2F242F215030E0C90184579E4F44
:10059000EBE8F1E051915D93E817F907D9F7F9011C
:1005A000E457FE4F02C0EBE8F1E080818093310315
:1005B000F60180838091470180933203F7018083A5
:1005C00080914601881F8827881FF8018083E1E415
:1005D000F1E080818F718630E1F7ECE4F1E0808119
:1005E0008F7780838081806880838FEF80934F0135
:1005F0008091410180932C03842F8250CF911F91D1
:100600000F91FF90EF90DF90CF90BF90AF909F90B1
:100610008F900895E5E4F1E090818F70907F982BA2
:1006200090830895809146018F71909100029817F0
:1006300010F480930002089580910002109200024D
:100640000895809132030895809131030895809137
:100650002F03089580912D0390912E0308954F92BA
:100660005F926F927F928F929F92AF92BF92CF9242
:10067000DF92EF92FF924B015C017CDD2B013C018C
:10068000689413F876946794579447941694D1F726
:100690000F2EFAE0CF2EF0E0DF2EF0E0EF2EF0E0AC
:1006A000FF2EF02DC501B401A7019601C1D4C301ED
:1006B000B201BED4CA01B9016B5F7F4F8F4F9F4F0C
:1006C000A7019601B5D4DA01C9010197A109B109C1
:1006D000E1ECF0E010821092C00026E02093C2000E
:1006E000292F2F702093C5008093C40088E1808358
:1006F00081E092E090937A0480937904E9E7F4E052
:10070000929382939583848381E080933303FF9057
:10071000EF90DF90CF90BF90AF909F908F907F90A1
:100720006F905F904F900895809133030895E0ECAF
:10073000F0E0908195FFFDCF8093C6000895CF93A0
:10074000C82FF5DF8C2F90E0CF910895CF93DF93E2
:10075000EC018881882329F02196E9DF899188239B
:10076000E1F7DF91CF9108958091C000881F88271D
:10077000881F0895F9DF8823E9F38091C600089562
:10078000CF93F8DFC82FD3DF8C2F90E0CF9108955F
:10079000BC014091390350913A034817590741F180
:1007A000ABE3B3E09D012E5E3F4FFD01819191913E
:1007B00086179707E9F0E217F307C1F741155105CE
:1007C00041F021E030E0A9018D919D91009759F40D
:1007D00002C040E050E0FA01EE0FFF1FE75CFC4F63
:1007E0007183608308952F5F3F4F2A30310559F799
:1007F0000895FC01009729F18081882311F18085FB
:1008000091850097F1F0662339F022812130C9F4F7
:1008100001979187808706C02281222391F4019756
:100820009187808780859185009759F481E0838343
:1008300086819781009719F081E0818301C0118240
:1008400010820895FC011082118262831382558305
:100850004483378326839CCFFC018081882341F425
:1008600081E08083118213828481958191878087C2
:10087000CF018ECFFC01108211820895CF93DF93B8
:10088000CDB7DEB727970FB6F894DEBF0FBECDBF4A
:1008900009E313E00F2EF4E1AF2EBB24F02DA00EE0
:1008A000B11EF80111921192EA15FB05D9F767DC28
:1008B000ECD1442455243324702E612E0F2EF9E3FD
:1008C0008F2EF3E09F2EF02D9DDD882309F07CD341
:1008D00003DE882389F18DE493E060E8AE014A5F8E
:1008E0005F4F9E012C5F3F4F8E010D5F1F4FEE2427
:1008F000FF246894E1F8EC0EFD1E6E010894C11C03
:10090000D11CF0DD082F8B818823B1F0A3DE2E816E
:100910003F818217930739F08FEF2F3F380719F087
:1009200096DE882349F06C817D818E819F81402FE6
:1009300050E02DE433E03CD248DCDC01CB014091B7
:100940003403509135036091360370913703481793
:1009500059076A077B0778F538DCDC01CB01885141
:100960009C4FAF4FBF4F8093340390933503A093B8
:100970003603B0933703072D162DD8018D919D9125
:100980008D0161E036DF0A151B05B9F70894411C9B
:10099000511CB8EE4B16B3E05B0668F0072D162D20
:1009A000F801819191918F0160E023DFA016B106DB
:1009B000B9F744245524A72DB62D00E010E0ED91A1
:1009C000FD91309771F18381882359F1CF01D0D106
:1009D000C801880F991F880D991DDC01ED91FC91CC
:1009E000119713828181882341F086819781009736
:1009F00021F09187808781E080831182B3DB882397
:100A000031F0332021F403D3332433945DCFAEDBB4
:100A1000882309F459CF332009F456CFF9D233246F
:100A200053CF0F5F1F4F0A30110549F6E7CFCF9321
:100A3000DF9380913C018093DC0310925E0410925E
:100A40005D0480E090E0EFE3F1E0DC01AD5EBD4FDE
:100A50008C91808380915D0490915E0401969093C7
:100A60005E0480935D048031910578F310923C011F
:100A700010925E0410925D04E0E0F0E0AEE3B1E0BD
:100A8000EC5BFD4F80818C9380915D0490915E04BE
:100A9000019690935E0480935D048031910510F47B
:100AA000FC01EECF80E880933C0180913D0180FD08
:100AB0006BC080E0EDE3F1E08F5F908190FFFCCFB1
:100AC0001F928F9385E592E09F938F9387D3109227
:100AD0005E0410925D040F900F900F900F9063C012
:100AE0008C918193CF01841B950B90935E0480932E
:100AF0005D04E217F307A1F710925E0410925D0403
:100B0000E3E1F2E0AF0123E232E0AFE3B1E08C9148
:100B10008193CF01841B950B90935E0480935D04B9
:100B2000E217F307A1F78BE692E09F938F9356D3DA
:100B300010925E0410925D040F900F90E0E0F0E0E0
:100B4000CAE7D2E0ED5DFD4F80811F928F93DF9366
:100B5000CF9344D380915D0490915E04019690936D
:100B60005E0480935D040F900F900F900F90803182
:100B7000910510F4FC01E6CF8BE992E09F938F93EF
:100B80002DD30F900F9017C01F921F9285E592E012
:100B90009F938F9323D310925E0410925D040F9065
:100BA0000F900F900F90E3E2F2E0AF0123E332E009
:100BB000AEE3B1E095CFDF91CF91089580913C01F4
:100BC0008093DC0310925E0410925D0480E090E05C
:100BD000EFE3F1E0DC01AD5EBD4F8C91808380914D
:100BE0005D0490915E04019690935E0480935D0491
:100BF0008031910578F388E080933C0110925E0487
:100C000010925D04E0E0F0E0AEE3B1E0ED5DFD4F99
:100C100080818C9380915D0490915E040196909305
:100C20005E0480935D048031910510F4FC01EECFE9
:100C300088E880933C01EDE3F1E0808180FFFDCF07
:100C400010925E0410925D04E3E3F2E0AF0123E44E
:100C500032E0AEE3B1E08C918193CF01841B950B20
:100C600090935E0480935D04E217F307A1F783E39A
:100C700092E09F938F9380E892E09F938F93AED200
:100C80000F900F900F900F9008959FDACB0157D2DD
:100C90004ADB65DA60E082E090E064DB81E0BADCA8
:100CA0009FDB60E875E280E090E0D9DC8EE992E0BD
:100CB0009F938F9393D224E630E048EE53E061E0B7
:100CC0008EEC93E0BFDD8EEC93E0C6DD0F900F90CD
:100CD00008950F931F93CF93DF9340E050E0C0E05F
:100CE000D0E0E6E4F1E0B1E0A0E000E010E0208137
:100CF0009B2F8A2F211102C0902F812F692F782FCF
:100D000080812B2F3A2F811102C0202F312FCA0151
:100D1000019602C0660F771F8A95E2F7042E02C083
:100D2000220F331F0A94E2F7622B732BC62BD72BAB
:100D30004E5F5F4F40315105D1F6DF93CF9383EA89
:100D400092E09F938F934AD2CE01A0E0B0E08093CF
:100D50005F0490936004A0936104B09362040F90C9
:100D60000F900F900F90DF91CF911F910F910895E9
:100D70008091CD038823D1F08091D903811116C0D1
:100D800081E08093D9031092CD0384E1E3E6F4E09F
:100D9000ADEDB3E001900D928A95E1F740916304C7
:100DA0005091640464E18DED93E031DB92CF0895BE
:100DB0008F929F92AF92BF92CF92DF92EF92FF926B
:100DC0000F931F93CF93DF93CDB7DEB761970FB625
:100DD000F894DEBF0FBECDBF8B0145305105C4F086
:100DE000790184E0E80EF11CFE0131966F014901A2
:100DF000840E951E5701F70181917F0190E0FFD18C
:100E0000F5018081F60181936F01E814F90491F7EF
:100E1000198ACE0101969F938F9384E492E09F9369
:100E20008F931FD2CBDE67EB72E084E492E0B8D1FF
:100E30000F900F900F900F90892BB1F588EC92E0F6
:100E4000E3D147DF81E090E09093640480936304F2
:100E500082E090E090936604809365048091620440
:100E60008F93809161048F93809160048F93809120
:100E70005F048F9381EE92E09F938F9304E412E0DE
:100E80001F930F93EED1D3DD1F930F9387E694E06A
:100E90009F938F93E6D181E08093CD030FB6F894B2
:100EA000DEBF0FBECDBF7DC084E492E053D1C090C1
:100EB0005F04D0906004E0906104F0906204EFEF72
:100EC000CE1ADE0AEE0AFE0A6C157D058E059F0518
:100ED00009F03EC085EE92E097D18091D803882337
:100EE00049F081E033DA83E031DA82E02FDA1092E0
:100EF000D80309C081E01EDA83E028DA82E026DA2E
:100F000081E08093D803109364040093630482E02B
:100F100090E0909366048093650481E1E5E0F3E05E
:100F2000A4E4B2E001900D928A95E1F780DD84E4BB
:100F300092E09F938F9387E694E09F938F9391D154
:100F400081E08093CD030F900F900F900F9029C0F8
:100F500085EF92E059D181E090E090936404809312
:100F6000630482E090E0909366048093650481E1DD
:100F7000E6E1F3E0A4E4B2E001900D928A95E1F796
:100F800056DD84E492E09F938F9387E694E09F93ED
:100F90008F9367D181E08093CD030F900F900F90D6
:100FA0000F9061960FB6F894DEBF0FBECDBFDF91F4
:100FB000CF911F910F91FF90EF90DF90CF90BF9056
:100FC000AF909F908F9008951092D903EDEDF3E0CC
:100FD0008DE594E01192E817F907E1F710926404A7
:100FE000109263041092660410926504E7E6F4E040
:100FF00087E794E01192E817F907E1F7E4E4F2E0FB
:1010000085E592E01192E817F907E1F70895089550
:101010000895DB018F939F932DD0BF91AF91A29F35
:10102000800D911DA39F900DB29F900D11240895E6
:10103000A1E21A2EAA1BBB1BFD010DC0AA1FBB1FDC
:10104000EE1FFF1FA217B307E407F50720F0A21B4E
:10105000B30BE40BF50B661F771F881F991F1A94BB
:1010600069F760957095809590959B01AC01BD01E5
:10107000CF01089509D0A59F900DB49F900DA49F16
:10108000800D911D11240895A29FB001B39FC0014E
:10109000A39F700D811D1124911DB29F700D811DA4
:1010A0001124911D08958F929F92AF92BF92CF927B
:1010B000DF92EF92FF92CF93DF93EC016881798109
:1010C0008A819B81611571058105910521F464E296
:1010D00079ED8BE597E02DE133EF41E050E083D3EC
:1010E00049015A019B01AC01A7EAB1E4C3DF6B01DE
:1010F0007C01ACEEB4EFA501940193D3C60ED71ECC
:10110000E81EF91EF7FE06C081E0C81AD108E10802
:1011100080E8F80AC882D982EA82FB82C6019F77FA
:10112000DF91CF91FF90EF90DF90CF90BF90AF9085
:101130009F908F900895B7CF8FE092E0B4CFA0E05A
:10114000B0E080930F0290931002A0931102B0932D
:10115000120208951F93FC0199278827BC01E89487
:1011600011911032E9F3193010F01E30C8F31B3220
:1011700049F01D3241F4689405C01BD0610F711D08
:10118000811D911D119110531A30B8F33EF49095C2
:101190008095709561957F4F8F4F9F4F1F91089558
:1011A000FB01DC018D91019080190110D9F3990B9D
:1011B0000895592F482F372F262F660F771F881F26
:1011C000991F660F771F881F991F620F731F841F57
:1011D000951F660F771F881F991F0895CF93DF9380
:1011E000CDB7DEB7FE01359661917191AF01809167
:1011F000790490917A0463D0DF91CF910895609142
:10120000790470917A045FC20F931F93CF93DF9399
:10121000E0917904F0917A04238121FF1BC0EC0155
:1012200000E010E089916091790470917A04DB010B
:101230001896ED91FC911997882331F00995892B27
:1012400089F30FEF1FEFEECF8AE00995892B11F498
:10125000C80102C08FEF9FEFDF91CF911F910F91D7
:1012600008950F931F93CF93DF93CDB7DEB72E97DB
:101270000FB6F894DEBF0FBECDBF0D891E8986E084
:101280008C831A8309838FEF9FE79E838D83AE0142
:10129000475E5F4F6F89788DCE01019610D0EF8148
:1012A000F885E00FF11F10822E960FB6F894DEBF7E
:1012B0000FBECDBFDF91CF911F910F9108952F9257
:1012C0003F924F925F926F927F928F929F92AF92D6
:1012D000BF92CF92DF92EF92FF920F931F93CF9323
:1012E000DF93CDB7DEB72C970FB6F894DEBF0FBEF5
:1012F000CDBF7C016B018A01FC01178216828381BC
:1013000081FFB0C1CE0101964C01F7019381F60136
:1013100093FD859193FF81916F01882309F49EC10C
:10132000853239F493FD859193FF81916F01853268
:1013300021F4B70190E0C7D1E8CF512C312C20E047
:101340002032A0F48B3269F030F4803259F08332CD
:1013500069F420612CC08D3239F0803339F421607A
:1013600026C02260246023C0286021C027FD27C03A
:1013700030ED380F3A3078F426FF06C0FAE05F9E71
:10138000300D1124532E13C08AE0389E300D1124E5
:10139000332E20620CC08E3221F426FD5FC1206402
:1013A00006C08C3611F4206802C0883641F4F6017C
:1013B00093FD859193FF81916F018111C1CF982F8A
:1013C0009F7D9554933028F40C5F1F4FFFE3F98302
:1013D0000DC0833631F0833771F0833509F057C083
:1013E00021C0F801808189830E5F1F4F44244394FC
:1013F000512C540114C03801F2E06F0E711CF80139
:10140000A080B18026FF03C0652D70E002C06FEFA1
:101410007FEFC5012C874CD12C0183012C852F77C0
:10142000222E16C03801F2E06F0E711CF801A08068
:10143000B18026FF03C0652D70E002C06FEF7FEF23
:10144000C5012C872AD12C012C852068222E8301EE
:1014500023FC19C0832D90E048165906A0F4B7016B
:1014600080E290E030D13A94F5CFF50127FC8591E8
:1014700027FE81915F01B70190E025D131103A94A8
:10148000F1E04F1A51084114510479F7DEC0843657
:1014900011F0893631F5F80127FF07C060817181AD
:1014A000828193810C5F1F4F08C060817181882702
:1014B00077FD8095982F0E5F1F4F2F76B22E97FFE6
:1014C00009C090958095709561957F4F8F4F9F4F84
:1014D0002068B22E2AE030E0A40127D1A82EA81857
:1014E00043C0853729F42F7EB22E2AE030E025C094
:1014F000F22FF97FBF2E8F36C1F018F4883579F0BE
:10150000ADC0803719F0883721F0A8C02F2F206197
:10151000B22EB4FE0DC08B2D8460B82E09C024FFFE
:101520000AC09F2F9660B92E06C028E030E005C0A3
:1015300020E130E002C020E132E0F801B7FE07C050
:1015400060817181828193810C5F1F4F06C0608131
:10155000718180E090E00E5F1F4FA401E6D0A82EBD
:10156000A818FB2DFF77BF2EB6FE0BC02B2D2E7FAC
:10157000A51450F4B4FE0AC0B2FC08C02B2D2E7E78
:1015800005C07A2C2B2D03C07A2C01C0752C24FFAA
:101590000DC0FE01EA0DF11D8081803311F4297E1A
:1015A00009C022FF06C07394739404C0822F86780A
:1015B00009F0739423FD12C020FF06C05A2C731447
:1015C00018F4530C5718732C731460F4B70180E2AD
:1015D00090E02C8778D073942C85F6CF731410F498
:1015E000371801C0312C24FF11C0B70180E390E00F
:1015F0002C8769D02C8522FF16C021FF03C088E507
:1016000090E002C088E790E0B7010CC0822F867896
:1016100051F021FD02C080E201C08BE227FD8DE286
:10162000B70190E050D0A51430F4B70180E390E00A
:101630004AD05A94F8CFAA94F401EA0DF11D8081A2
:10164000B70190E040D0A110F6CF332009F45DCE71
:10165000B70180E290E037D03A94F7CFF701868166
:10166000978102C08FEF9FEF2C960FB6F894DEBFE4
:101670000FBECDBFDF91CF911F910F91FF90EF90E3
:10168000DF90CF90BF90AF909F908F907F906F90A2
:101690005F904F903F902F900895FC01059061500E
:1016A00070400110D8F7809590958E0F9F1F089578
:1016B000FC016150704001900110D8F78095909521
:1016C0008E0F9F1F08950F931F93CF93DF93182FB3
:1016D000092FEB018B8181FD03C08FEF9FEF20C0AD
:1016E00082FF10C04E815F812C813D8142175307DC
:1016F0007CF4E881F9819F012F5F3F4F3983288374
:10170000108306C0E885F985812F0995892B29F773
:101710002E813F812F5F3F4F3F832E83812F902F5C
:10172000DF91CF911F910F910895FA01AA272830D8
:1017300051F1203181F1E8946F936E7F6E5F7F4F9E
:101740008F4F9F4FAF4FB1E03ED0B4E03CD0670F1A
:10175000781F891F9A1FA11D680F791F8A1F911D6D
:10176000A11D6A0F711D811D911DA11D20D009F4BD
:1017700068943F912AE0269F11243019305D3193FF
:10178000DEF6CF010895462F4770405D4193B3E0E8
:101790000FD0C9F7F6CF462F4F70405D4A3318F08F
:1017A000495D31FD4052419302D0A9F7EACFB4E040
:1017B000A6959795879577956795BA95C9F70097F8
:1017C0006105710508959B01AC010A2E0694579599
:1017D000479537952795BA95C9F7620F731F841FF0
:1017E000951FA01D0895052E97FB16F400940FD0A9
:1017F00057FD05D01DDC07FC02D046F408C050950B
:101800004095309521953F4F4F4F5F4F08959095EC
:101810008095709561957F4F8F4F9F4F0895B7FFCB
:0E18200029CC28DC821B930B0895F894FFCF8F
:10182E00FF00000003000000009F03C00300000142
:10183E00000000414141414141414141414141414D
:10184E004141415F5F5F5F5F5F5F5F5F5F5F5F5FF4
:10185E005F5F002E2E2E2E2E2E2E2E2E2E2E2E2E66
:10186E002E2E2E00546869732069732061207465D2
:10187E0073742121002020204C6F6F707320746FC1
:10188E0020646F6E653D25640A0D00202020637272
:10189E007970746F746578743D002025303278004D
:1018AE0020202044656372797074656420706C61C9
:1018BE00696E746578743D222573220A0D00746575
:1018CE0073740072616E646F6D206E756D626572F9
:1018DE003A2025750D0A004F50454E4F50454E4F3C
:1018EE0050454E4F50454E0073656E64696E6720CD
:1018FE00612072616E646F6D206E756D6265720D22
:10190E0000256C750073656E64696E6720616E20CC
:10191E0061636B0D0073656E64696E672061206E86
:10192E0061636B0D0041434B41434B616341434B3C
:10193E0041434B6163004E41434B4E41434B4E413D
:08194E00434B4E41434B0000E6
:00000001FF
