:100000008FC00000AAC00000A8C00000A6C0000069
:10001000A4C00000A2C00000A0C000009EC000005C
:100020009CC000009AC0000098C0000096C000006C
:1000300094C0000092C0000090C000008EC000007C
:100040008CC000008AC0000088C0000086C000008C
:1000500084C0000082C0000080C000007EC000009C
:100060007CC000007AC0000078C0000076C00000AC
:1000700074C0000072C0000070C000006EC00000BC
:100080006CC000006AC0000068C0000066C00000CC
:1000900064C0000062C0000060C000005EC00000DC
:1000A0005CC000005AC0000058C0000056C00000EC
:1000B00054C0000052C0000050C000004EC00000FC
:1000C0004CC000004AC0000048C0000046C000000C
:1000D00044C0000042C0000040C000003EC000001C
:1000E0003CC000003AC0000038C0000036C000002C
:1000F00034C0000032C0000030C000002EC000003C
:100100002CC000002AC0000028C0000026C000004B
:1001100024C0000022C0000020C000001EC000005B
:1001200011241FBECFEFD1E4DEBFCDBF12E0A0E0AF
:10013000B2E0EEE4FCE000E00BBF02C007900D92DD
:10014000AA31B107D9F723E0AAE1B2E001C01D92BC
:10015000AD35B207E1F7B9D278C552CF6D98759A2F
:10016000089581E0659980E00895FBDF91E089279B
:1001700008956A9A6B9A6C9A729A739A749A08950F
:10018000813011F472980895823011F473980895B3
:10019000833009F474980895813011F4729A0895A7
:1001A000823011F4739A0895833009F4749A089593
:1001B000FF920F931F93CF93DF93082F192FF62EE3
:1001C000C9E3D1E0188286E090E0BFD381E0888364
:1001D0008091410180931A02882351F488E0809332
:1001E00042018EEF91E0B1D38091410180931A02D8
:1001F0008BE0809348018FEF80934F0100931B02A7
:1002000010931C020093600110936101109262012F
:10021000109263018091410180931A02F0921D02B5
:10022000DF91CF911F910F91FF9008958FEF8093F1
:100230004F0186E080934201E1E4F1E080818F711B
:100240008630E1F7ECE4F1E08081806880830895F6
:1002500080911E0210921E0208952FEF20934F01ED
:10026000209141012F71293041F029E02093420172
:10027000E1E4F1E020812930E9F7262F235F209384
:10028000800120E22093810122E22093820121E07B
:10029000209383011092840110928501509386016E
:1002A00040938701109288011092890120911C02CD
:1002B00020938A0120911B0220938B01662391F0E9
:1002C000A82FB92F615070E0CB0183579E4FECE807
:1002D000F1E02D912193E817F907D9F7FB01E357D6
:1002E000FE4F02C0ECE8F1E01082118282E08093C0
:1002F0004201EFE4F1E0808186FFFDCF8FEF809334
:100300004F0186E080934201E1E4F1E080818F714A
:100310008630E1F781E080931E0280914101809355
:100320001A02089590914F0181E093FF80E00895B3
:100330008F929F92AF92BF92CF92DF92EF92FF92F5
:100340000F931F93CF93782FC92F5A0149014091E2
:100350007B018FEF80930002EFE4F1E0808182FF68
:10036000FDCF0CC0808190E08F7190702817390705
:1003700064F480818F718093000204C0AFE4B1E027
:10038000E6E4F1E02091000230E08C9183FFEACFB7
:10039000842F8B50462F861708F4482F3091850103
:1003A00020E08091860190E0822B932BF5019183D0
:1003B00080833091890120E080918A0190E0822B36
:1003C000932BF40191838083442399F0A72FBC2FB2
:1003D000242F215030E0C90184579E4FEBE8F1E013
:1003E00051915D93E817F907D9F7F901E457FE4FEA
:1003F00002C0EBE8F1E0808180931F02F601808368
:100400008091470180932002F7018083809146010B
:10041000881F8827881FF8018083E1E4F1E080814C
:100420008F718630E1F7ECE4F1E080818F77808393
:100430008081806880838FEF80934F01809141019C
:1004400080931A02842F8250CF911F910F91FF90B9
:10045000EF90DF90CF90BF90AF909F908F900895D6
:10046000E5E4F1E090818F70907F982B9083089560
:10047000809146018F7190910002981710F480933B
:100480000002089580910002109200020895809168
:100490002002089580911F02089580911D02089501
:1004A00080911B0290911C0208954F925F926F926F
:1004B0007F928F929F92AF92BF92CF92DF92EF92F4
:1004C000FF924B015C01DAD12B013C01689413F8D7
:1004D00076946794579447941694D1F70F2EFAE0C8
:1004E000CF2EF0E0DF2EF0E0EF2EF0E0FF2EF02D2B
:1004F000C501B401A701960140D3C301B2013DD3A8
:10050000CA01B9016B5F7F4F8F4F9F4FA7019601C3
:1005100034D3DA01C9010197A109B109E1ECF0E096
:1005200010821092C00026E02093C200292F2F7065
:100530002093C5008093C40088E1808381E092E02D
:1005400090935A0380935903E9E5F3E092938293E1
:100550009583848381E080932102FF90EF90DF9068
:10056000CF90BF90AF909F908F907F906F905F9053
:100570004F900895809121020895E0ECF0E0908181
:1005800095FFFDCF8093C6000895CF93C82FF5DF68
:100590008C2F90E0CF910895CF93DF93EC01888169
:1005A000882329F02196E9DF89918823E1F7DF91FB
:1005B000CF9108958091C000881F8827881F0895D3
:1005C000F9DF8823E9F38091C6000895CF93F8DF1F
:1005D000C82FD3DF8C2F90E0CF910895BC014091BC
:1005E0002702509128024817590741F1A9E2B2E0C9
:1005F0009D012E5E3F4FFD018191919186179707D6
:10060000E9F0E217F307C1F74115510541F021E088
:1006100030E0A9018D919D91009759F402C040E00E
:1006200050E0FA01EE0FFF1FE95DFD4F718360831B
:1006300008952F5F3F4F2A30310559F70895FC0187
:10064000009729F18081882311F180859185009799
:10065000F1F0662339F022812130C9F401979187A6
:10066000808706C02281222391F401979187808799
:1006700080859185009759F481E0838386819781F5
:10068000009719F081E0818301C0118210820895E2
:10069000FC01108211826283138255834483378365
:1006A00026839CCF0895FC018081882341F481E05A
:1006B0008083118213828481958191878087CF0105
:1006C0008DCFFC01108211820895CF93DF93CDB7B7
:1006D000DEB727970FB6F894DEBF0FBECDBF07E297
:1006E00012E00F2EF4E1AF2EBB24F02DA00EB11EB0
:1006F000F80111921192EA15FB05D9F7C4D097D1F0
:10070000442455243324702E612E0F2EF7E28F2EB1
:10071000F2E09F2EF02D9CDD882309F0F4D102DE5B
:10072000882389F18BE392E060E8AE014A5F5F4F76
:100730009E012C5F3F4F8E010D5F1F4FEE24FF2463
:100740006894E1F8EC0EFD1E6E010894C11CD11CEA
:10075000EFDD082F8B818823B1F0A2DE2E813F814F
:100760008217930739F08FEF2F3F380719F095DE86
:10077000882349F06C817D818E819F81402F50E0DC
:100780002BE332E090D1A5D0DC01CB0140912202D5
:100790005091230260912402709125024817590755
:1007A0006A077B0778F595D0DC01CB0188519C4F17
:1007B000AF4FBF4F8093220290932302A093240255
:1007C000B0932502072D162DD8018D919D918D0195
:1007D00061E035DF0A151B05B9F70894411C511C6F
:1007E000B8EE4B16B3E05B0668F0072D162DF80146
:1007F000819191918F0160E022DFA016B106B9F7D7
:1008000044245524A72DB62D00E010E0ED91FD9174
:10081000309771F18381882359F1CF0125D1C80127
:10082000880F991F880D991DDC01ED91FC9111979E
:1008300013828181882341F086819781009721F07E
:100840009187808781E0808311828BDC882331F05F
:10085000332021F463D1332433945DCF86DC8823A5
:1008600009F459CF332009F456CF77D1332453CF2D
:100870000F5F1F4F0A30110549F6E7CF60E072E1C4
:100880008AE790E008951092800081E080938100D3
:1008900010928200109285001092840010926F00D6
:1008A0000895CF93DF93EC01EEDFD0938500C093E2
:1008B0008400DF91CF91089581E0B09B80E0882390
:1008C00011F091E096BB089580918400909185008D
:1008D0000895CF92DF92EF92FF92C0908400D09063
:1008E0008500D694C794D694C794D694C794EE2422
:1008F000FF24E2DF8823A1F08091BB029091BC022B
:10090000A091BD02B091BE028050904EAF4FBF4F3C
:100910008093BB029093BC02A093BD02B093BE0231
:100920008091BB029091BC02A091BD02B091BE0229
:10093000C80ED91EEA1EFB1E6C2D7D2D8E2D9F2DFF
:10094000FF90EF90DF90CF9008958F929F92AF929B
:10095000BF92CF92DF92EF92FF924C01AA24BB2468
:10096000880C991CAA1CBB1C880C991CAA1CBB1CBB
:10097000880C991CAA1CBB1C80E0881680E0980695
:1009800081E0A80680E0B80678F17501640180E096
:1009900090E087DF80E090E0AFEFBFEFC80ED91E98
:1009A000EA1EFB1E89DF8823E9F390E0C91690E078
:1009B000D90691E0E90690E0F90648F780E090E07A
:1009C000AFEFBFEF880E991EAA1EBB1EB501882788
:1009D000992720E030E04FEF5FEFC0D0DC01CB0182
:1009E000880E991EAA1EBB1EC4018095909559DFE2
:1009F00063DF8823E9F3FF90EF90DF90CF90BF9003
:100A0000AF909F908F900895CF93DF93EC01823445
:100A1000910540F088EE9DEF98DFC154D040C2347C
:100A2000D105C0F7CE0191DFDF91CF910895A1DB11
:100A300095DB60E081E090E0BBDB81E011DDF6DB7F
:100A400060E875E280E090E030DD83E192E0D0D0B4
:100A500024E630E048EE53E061E081EC92E018DEFD
:100A600081EC92E020CE08958091C0028823D1F0DD
:100A70008091BF02811116C081E08093BF02109265
:100A8000C00286E0E1E5F3E0ABECB2E001900D924C
:100A90008A95E1F7409151035091520366E08BEC47
:100AA00092E0DBCB0895F901808190E090934C03B4
:100AB00080934B03228130E030934E0320934D030B
:100AC000848190E09093500380934F030197D1F479
:100AD000309352032093510381E090E090935403AC
:100AE00080935303809111029091120290935603C8
:100AF0008093550321E02093C00201969093120247
:100B00008093110208951092BF02EBECF2E08BE4A7
:100B100093E01192E817F907E1F7089580910F0229
:100B200090911002909352038093510381E090E0E2
:100B30009093540380935303809111029091120279
:100B4000909356038093550321E02093C0020196B1
:100B5000909312028093110208950895DB018F9300
:100B60009F932DD0BF91AF91A29F800D911DA39F08
:100B7000900DB29F900D11240895A1E21A2EAA1B88
:100B8000BB1BFD010DC0AA1FBB1FEE1FFF1FA2173D
:100B9000B307E407F50720F0A21BB30BE40BF50B3A
:100BA000661F771F881F991F1A9469F760957095C3
:100BB000809590959B01AC01BD01CF01089509D0AE
:100BC000A59F900DB49F900DA49F800D911D1124A1
:100BD0000895A29FB001B39FC001A39F700D811D16
:100BE0001124911DB29F700D811D1124911D089536
:100BF0000F931F93CF93DF93E0915903F0915A0322
:100C0000238121FF1BC0EC0100E010E0899160917D
:100C1000590370915A03DB011896ED91FC911997D5
:100C2000882331F00995892B89F30FEF1FEFEECF61
:100C30008AE00995892B11F4C80102C08FEF9FEF5C
:0E0C4000DF91CF911F910F910895F894FFCF8F
:100C4E00FF0000000300000000C502E602000002E3
:0A0C5E00000F00746573740D0000B0
:00000001FF
