S00C0000476174652E7372656397
S11300008FC00000ABC00000A9C00000A7C0000062
S1130010A5C00000A3C00000A1C000009FC0000054
S11300209DC000009BC0000099C0000097C0000064
S113003095C0000093C0000091C000008FC0000074
S11300408DC000008BC0000089C0000087C0000084
S113005085C0000083C0000081C000007FC0000094
S11300607DC000007BC0000079C0000077C00000A4
S113007075C0000073C0000071C000006FC00000B4
S11300806DC000006BC0000069C0000067C00000C4
S113009065C0000063C0000061C000005FC00000D4
S11300A05DC000005BC0000059C0000057C00000E4
S11300B055C0000053C0000051C000004FC00000F4
S11300C04DC000004BC0000049C0000047C0000004
S11300D045C0000043C0000041C000003FC0000014
S11300E03DC000003BC0000039C0000037C0000024
S11300F035C0000033C0000031C000002FC0000034
S11301002DC000002BC0000029C0000027C0000043
S113011025C0000023C0000021C000001FC0000053
S113012011241FBECFEFD1E4DEBFCDBF12E0A0E0AB
S1130130B2E0E6E4F2E100E00BBF02C007900D92EA
S1130140A83DB107D9F724E0A8EDB2E001C01D92A3
S1130150AF31B207E1F7BAD20C94210951CF6D98AF
S1130160759A089581E0659980E00895FBDF91E038
S1130170892708956A9A6B9A6C9A729A739A749AF8
S11301800895813011F472980895823011F47398AF
S11301900895833009F474980895813011F4729AA3
S11301A00895823011F4739A0895833009F4749A8F
S11301B00895FF920F931F93CF93DF93082F192F66
S11301C0F62EC9E3D1E0188286E090E0BFD381E047
S11301D08883809141018093D802882351F488E078
S11301E0809342018EEF91E0B1D3809141018093DD
S11301F0D8028BE0809348018FEF80934F010093E6
S1130200D9021093DA0200936001109361011092F5
S1130210620110926301809141018093D802F092AF
S1130220DB02DF91CF911F910F91FF9008958FEF23
S113023080934F0186E080934201E1E4F1E0808104
S11302408F718630E1F7ECE4F1E08081806880838F
S113025008958091DC021092DC0208952FEF209320
S11302604F01209141012F71293041F029E0209361
S11302704201E1E4F1E020812930E9F7262F235FF0
S11302802093800120E22093810122E220938201C5
S113029021E02093830110928401109285015093F0
S11302A08601409387011092880110928901209160
S11302B0DA0220938A012091D90220938B016623CC
S11302C091F0A82FB92F615070E0CB0183579E4F56
S11302D0ECE8F1E02D912193E817F907D9F7FB0138
S11302E0E357FE4F02C0ECE8F1E01082118282E095
S11302F080934201EFE4F1E0808186FFFDCF8FEF30
S113030080934F0186E080934201E1E4F1E0808133
S11303108F718630E1F781E08093DC0280914101A6
S11303208093D802089590914F0181E093FF80E07B
S113033008958F929F92AF92BF92CF92DF92EF92E5
S1130340FF920F931F93CF93782FC92F5A0149011E
S113035040917B018FEF80930002EFE4F1E0808114
S113036082FFFDCF0CC0808190E08F7190702817C0
S1130370390764F480818F718093000204C0AFE474
S1130380B1E0E6E4F1E02091000230E08C9183FFDB
S1130390EACF842F8B50462F861708F4482F3091CC
S11303A0850120E08091860190E0822B932BF5015A
S11303B0918380833091890120E080918A0190E0CB
S11303C0822B932BF40191838083442399F0A72FEC
S11303D0BC2F242F215030E0C90184579E4FEBE8F5
S11303E0F1E051915D93E817F907D9F7F901E45762
S11303F0FE4F02C0EBE8F1E080818093DD02F6015C
S11304008083809147018093DE02F701808380918D
S11304104601881F8827881FF8018083E1E4F1E002
S113042080818F718630E1F7ECE4F1E080818F7791
S113043080838081806880838FEF80934F018091D7
S113044041018093D802842F8250CF911F910F9144
S1130450FF90EF90DF90CF90BF90AF909F908F90E0
S11304600895E5E4F1E090818F70907F982B90835C
S11304700895809146018F7190910002981710F4AD
S11304808093000208958091000210920002089562
S11304908091DE0208958091DD0208958091DB024F
S11304A008958091D9029091DA0208954F925F9253
S11304B06F927F928F929F92AF92BF92CF92DF9270
S11304C0EF92FF924B015C01DAD12B013C0168945D
S11304D013F876946794579447941694D1F70F2E93
S11304E0FAE0CF2EF0E0DF2EF0E0EF2EF0E0FF2E6A
S11304F0F02DC501B401A701960196D3C301B20141
S113050093D3CA01B9016B5F7F4F8F4F9F4FA701F0
S113051096018AD3DA01C9010197A109B109E1EC75
S1130520F0E010821092C00026E02093C200292F30
S11305302F702093C5008093C40088E1808381E0FC
S113054092E090931C0480931B04EBE1F4E09293FB
S113055082939583848381E08093DF02FF90EF9000
S1130560DF90CF90BF90AF909F908F907F906F90CF
S11305705F904F9008958091DF020895E0ECF0E0E1
S1130580908195FFFDCF8093C6000895CF93C82F27
S1130590F5DF8C2F90E0CF910895CF93DF93EC019A
S11305A08881882329F02196E9DF89918823E1F75E
S11305B0DF91CF9108958091C000881F8827881FFC
S11305C00895F9DF8823E9F38091C6000895CF9355
S11305D0F8DFC82FD3DF8C2F90E0CF910895BC01B2
S11305E04091E5025091E6024817590741F1A7EE00
S11305F0B2E09D012E5E3F4FFD01819191918617DE
S11306009707E9F0E217F307C1F74115510541F0E7
S113061021E030E0A9018D919D91009759F402C029
S113062040E050E0FA01EE0FFF1FEB51FD4F7183E4
S1130630608308952F5F3F4F2A30310559F708959D
S1130640FC01009729F18081882311F1808591852F
S11306500097F1F0662339F022812130C9F4019723
S11306609187808706C02281222391F40197918784
S1130670808780859185009759F481E08383868102
S11306809781009719F081E0818301C01182108263
S11306900895FC011082118262831382558344837E
S11306A0378326839CCF0895FC018081882341F4FD
S11306B081E0808311821382848195819187808770
S11306C0CF018DCFFC01108211820895CF93DF9367
S11306D0CDB7DEB727970FB6F894DEBF0FBECDBFF8
S11306E005EE12E00F2EF4E1AF2EBB24F02DA00E88
S11306F0B11EF80111921192EA15FB05D9F7C4D085
S113070097D1442455243324702E612E0F2EF5EEF8
S11307108F2EF2E09F2EF02D9CDD882309F068D205
S113072002DE882389F189EF92E060E8AE014A5F36
S11307305F4F9E012C5F3F4F8E010D5F1F4FEE24D4
S1130740FF246894E1F8EC0EFD1E6E010894C11CB0
S1130750D11CEFDD082F8B818823B1F0A2DE2E811E
S11307603F818217930739F08FEF2F3F380719F035
S113077095DE882349F06C817D818E819F81402F95
S113078050E029EF32E096D1A5D0DC01CB014091B5
S1130790E0025091E1026091E2027091E302481795
S11307A059076A077B0778F595D0DC01CB0188519E
S11307B09C4FAF4FBF4F8093E0029093E102A09310
S11307C0E202B093E302072D162DD8018D919D917D
S11307D08D0161E035DF0A151B05B9F70894411C4A
S11307E0511CB8EE4B16B3E05B0668F0072D162DCE
S11307F0F801819191918F0160E022DFA016B1068A
S1130800B9F744245524A72DB62D00E010E0ED914E
S1130810FD91309771F18381882359F1CF0149D13A
S1130820C801880F991F880D991DDC01ED91FC9179
S1130830119713828181882341F0868197810097E3
S113084021F09187808781E0808311828BDC88236B
S113085031F0332021F4D7D1332433945DCF86DCB7
S1130860882309F459CF332009F456CFCDD133244A
S113087053CF0F5F1F4F0A30110549F6E7CF60E0F1
S113088072E18AE790E008951092800081E08093FD
S113089081001092820010928500109284001092C0
S11308A06F000895CF93DF93EC01EEDFD0938500C2
S11308B0C0938400DF91CF91089581E0B09B80E0E4
S11308C0882311F091E096BB089580918400909163
S11308D085000895CF92DF92EF92FF92C09084003A
S11308E0D0908500D694C794D694C794D694C794D0
S11308F0EE24FF24E2DF8823A1F080917903909114
S11309007A03A0917B03B0917C038050904EAF4F4B
S1130910BF4F8093790390937A03A0937B03B093A2
S11309207C038091790390917A03A0917B03B09129
S11309307C03C80ED91EEA1EFB1E6C2D7D2D8E2D48
S11309409F2DFF90EF90DF90CF9008958F929F920C
S1130950AF92BF92CF92DF92EF92FF924C01AA2402
S1130960BB24880C991CAA1CBB1C880C991CAA1CAF
S1130970BB1C880C991CAA1CBB1C80E0881680E058
S1130980980681E0A80680E0B80678F17501640154
S113099080E090E087DF80E090E0AFEFBFEFC80E2B
S11309A0D91EEA1EFB1E89DF8823E9F390E0C916ED
S11309B090E0D90691E0E90690E0F90648F780E076
S11309C090E0AFEFBFEF880E991EAA1EBB1EB501C3
S11309D08827992720E030E04FEF5FEF16D1DC0144
S11309E0CB01880E991EAA1EBB1EC401809590954A
S11309F059DF63DF8823E9F3FF90EF90DF90CF9016
S1130A00BF90AF909F908F900895CF93DF93EC01A8
S1130A108234910540F088EE9DEF98DFC154D040B8
S1130A20C234D105C0F7CE0191DFDF91CF91089593
S1130A30CF93DF93C1E0D0E0D0938A03C0938903BE
S1130A408FE090E090938C0380938B0393DB87DBA0
S1130A5060E082E090E0ADDB81E003DDE8DB60E8AC
S1130A6075E280E090E022DD81E192E09F938F9334
S1130A7016D120ED37E048EE53E061E08EE793E0D5
S1130A8008DE8EE793E010DE8FEF90E090930E0483
S1130A9080930D0482E090E09093100480930F04FF
S1130AA0D0931204C09311040F900F90DF91CF9153
S1130AB0089508950F931F93CF93DF93F9018081D5
S1130AC090E090931404809313042281822F90E089
S1130AD005E114E0D8018D939C93C7E1D4E08481AF
S1130AE090E0998388831F922F9386E192E09F93ED
S1130AF08F93D5D089818F9388818F938EE292E0F2
S1130B009F938F93CCD0EBE8F3E081818F93808126
S1130B108F938CE492E09F938F93C1D080911002C5
S1130B208F9380910F028F938EE592E09F938F9322
S1130B30B6D0EDB7FEB770960FB6F894FEBF0FBEF1
S1130B40EDBFD8012D913C918091890390918A0346
S1130B502817390709F047C08091170490911804A9
S1130B6020918B0330918C038217930750F483E711
S1130B7092E0A6D081E011DB83E003DB82E00DDBB1
S1130B8032C0AC01421B530B20910F023091100272
S1130B9024173507F8F0019690938C0380938B0308
S1130BA08DE992E08DD080917D0381110AC081E0AE
S1130BB0E8DA83E0F2DA82E0F0DA81E080937D0320
S1130BC012C081E0EADA83E0E8DA82E0E6DA109241
S1130BD07D0309C08FEA92E073D081E0DEDA83E01E
S1130BE0DCDA82E0CEDADF91CF911F910F91089584
S1130BF010928803EDE8F3E08DE094E01192E81799
S1130C00F907E1F7089508950895DB018F939F9301
S1130C102DD0BF91AF91A29F800D911DA39F900DE8
S1130C20B29F900D11240895A1E21A2EAA1BBB1B9A
S1130C30FD010DC0AA1FBB1FEE1FFF1FA217B307A4
S1130C40E407F50720F0A21BB30BE40BF50B661FBA
S1130C50771F881F991F1A9469F76095709580957E
S1130C6090959B01AC01BD01CF01089509D0A59FCA
S1130C70900DB49F900DA49F800D911D1124089593
S1130C80A29FB001B39FC001A39F700D811D1124C9
S1130C90911DB29F700D811D1124911D0895CF9354
S1130CA0DF93CDB7DEB7FE01359661917191AF0147
S1130CB080911B0490911C0430D0DF91CF91089552
S1130CC00F931F93CF93DF93E0911B04F0911C04C7
S1130CD0238121FF1BC0EC0100E010E089916091A9
S1130CE01B0470911C04DB011896ED91FC9119977B
S1130CF0882331F00995892B89F30FEF1FEFEECF8D
S1130D008AE00995892B11F4C80102C08FEF9FEF87
S1130D10DF91CF911F910F9108952F923F924F929F
S1130D205F926F927F928F929F92AF92BF92CF9277
S1130D30DF92EF92FF920F931F93CF93DF93CDB780
S1130D40DEB72C970FB6F894DEBF0FBECDBF7C0183
S1130D506B018A01FC0117821682838181FFB0C175
S1130D60CE0101964C01F7019381F60193FD859123
S1130D7093FF81916F01882309F49EC1853239F470
S1130D8093FD859193FF81916F01853221F4B70121
S1130D9090E0C7D1E8CF512C312C20E02032A0F4D0
S1130DA08B3269F030F4803259F0833269F4206177
S1130DB02CC08D3239F0803339F4216026C0226092
S1130DC0246023C0286021C027FD27C030ED380FE0
S1130DD03A3078F426FF06C0FAE05F9E300D112405
S1130DE0532E13C08AE0389E300D1124332E206216
S1130DF00CC08E3221F426FD5FC1206406C08C36FF
S1130E0011F4206802C0883641F4F60193FD8591FF
S1130E1093FF81916F018111C1CF982F9F7D9554CC
S1130E20933028F40C5F1F4FFFE3F9830DC0833622
S1130E3031F0833771F0833509F057C021C0F801D0
S1130E40808189830E5F1F4F44244394512C5401A5
S1130E5014C03801F2E06F0E711CF801A080B1805B
S1130E6026FF03C0652D70E002C06FEF7FEFC50160
S1130E702C874CD12C0183012C852F77222E16C070
S1130E803801F2E06F0E711CF801A080B18026FFDA
S1130E9003C0652D70E002C06FEF7FEFC5012C87A2
S1130EA02AD12C012C852068222E830123FC19C011
S1130EB0832D90E048165906A0F4B70180E290E033
S1130EC030D13A94F5CFF50127FC859127FE819125
S1130ED05F01B70190E025D131103A94F1E04F1A47
S1130EE051084114510479F7DEC0843611F0893673
S1130EF031F5F80127FF07C06081718182819381F8
S1130F000C5F1F4F08C060817181882777FD809531
S1130F10982F0E5F1F4F2F76B22E97FF09C0909522
S1130F208095709561957F4F8F4F9F4F2068B22EAB
S1130F302AE030E0A40127D1A82EA81843C08537A1
S1130F4029F42F7EB22E2AE030E025C0F22FF97F5B
S1130F50BF2E8F36C1F018F4883579F0ADC08037D4
S1130F6019F0883721F0A8C02F2F2061B22EB4FECB
S1130F700DC08B2D8460B82E09C024FF0AC09F2F9A
S1130F809660B92E06C028E030E005C020E130E0CC
S1130F9002C020E132E0F801B7FE07C06081718130
S1130FA0828193810C5F1F4F06C06081718180E054
S1130FB090E00E5F1F4FA401E6D0A82EA818FB2DC9
S1130FC0FF77BF2EB6FE0BC02B2D2E7FA51450F439
S1130FD0B4FE0AC0B2FC08C02B2D2E7E05C07A2CAC
S1130FE02B2D03C07A2C01C0752C24FF0DC0FE01EB
S1130FF0EA0DF11D8081803311F4297E09C022FF9E
S113100006C07394739404C0822F867809F0739495
S113101023FD12C020FF06C05A2C731418F4530C7D
S11310205718732C731460F4B70180E290E02C8796
S113103078D073942C85F6CF731410F4371801C04C
S1131040312C24FF11C0B70180E390E02C8769D0D4
S11310502C8522FF16C021FF03C088E590E002C062
S113106088E790E0B7010CC0822F867851F021FD0B
S113107002C080E201C08BE227FD8DE2B70190E05F
S113108050D0A51430F4B70180E390E04AD05A94CC
S1131090F8CFAA94F401EA0DF11D8081B70190E024
S11310A040D0A110F6CF332009F45DCEB70180E221
S11310B090E037D03A94F7CFF7018681978102C048
S11310C08FEF9FEF2C960FB6F894DEBF0FBECDBF07
S11310D0DF91CF911F910F91FF90EF90DF90CF9010
S11310E0BF90AF909F908F907F906F905F904F9044
S11310F03F902F900895FC010590615070400110BD
S1131100D8F7809590958E0F9F1F0895FC0161502C
S1131110704001900110D8F7809590958E0F9F1F15
S113112008950F931F93CF93DF93182F092FEB018B
S11311308B8181FD03C08FEF9FEF20C082FF10C021
S11311404E815F812C813D81421753077CF4E881F5
S1131150F9819F012F5F3F4F39832883108306C095
S1131160E885F985812F0995892B29F72E813F81FF
S11311702F5F3F4F3F832E83812F902FDF91CF919D
S11311801F910F910895FA01AA27283051F12031B7
S113119081F1E8946F936E7F6E5F7F4F8F4F9F4F07
S11311A0AF4FB1E03ED0B4E03CD0670F781F891F49
S11311B09A1FA11D680F791F8A1F911DA11D6A0F17
S11311C0711D811D911DA11D20D009F468943F91CA
S11311D02AE0269F11243019305D3193DEF6CF01C9
S11311E00895462F4770405D4193B3E00FD0C9F78F
S11311F0F6CF462F4F70405D4A3318F0495D31FDFC
S11312004052419302D0A9F7EACFB4E0A69597954E
S1131210879577956795BA95C9F700976105710524
S113122008959B01AC010A2E06945795479537956E
S11312302795BA95C9F7620F731F841F951FA01DC8
S10912400895F894FFCFAD
S1131246FF0000000300000000C602E702000005DC
S11312560074657374004F70656E207265717565F0
S113126673742066726F6D3A2025640D0A00526FFE
S11312766C6C696E6720636F64652076616C756556
S11312862073656E743A2025640D0A0041637475F3
S1131296616C20636F64653A2025640D0A00536906
S11312A67A65206F662077696E646F773A202564C5
S11312B60D0A004E756D62657220746F6F20736D32
S11312C6616C6C2C20646F6E2774206F70656E20C1
S11312D67468652067617465210D0A0D004F706599
S11312E66E207468652067617465210D0A0D004ED1
S11312F6756D62657220746F6F206269672C206455
S11313066F6E2774206F70656E2074686520676140
S10B13167465210D0A0D0000AD
S9030000FC
