:100000008FC00000ABC00000A9C00000A7C0000066
:10001000A5C00000A3C00000A1C000009FC0000058
:100020009DC000009BC0000099C0000097C0000068
:1000300095C0000093C0000091C000008FC0000078
:100040008DC000008BC0000089C0000087C0000088
:1000500085C0000083C0000081C000007FC0000098
:100060007DC000007BC0000079C0000077C00000A8
:1000700075C0000073C0000071C000006FC00000B8
:100080006DC000006BC0000069C0000067C00000C8
:1000900065C0000063C0000061C000005FC00000D8
:1000A0005DC000005BC0000059C0000057C00000E8
:1000B00055C0000053C0000051C000004FC00000F8
:1000C0004DC000004BC0000049C0000047C0000008
:1000D00045C0000043C0000041C000003FC0000018
:1000E0003DC000003BC0000039C0000037C0000028
:1000F00035C0000033C0000031C000002FC0000038
:100100002DC000002BC0000029C0000027C0000047
:1001100025C0000023C0000021C000001FC0000057
:1001200011241FBECFEFD1E4DEBFCDBF12E0A0E0AF
:10013000B2E0E4E7F5E100E00BBF02C007900D92EA
:10014000AC39B107D9F724E0ACE9B2E001C01D92A7
:10015000A632B207E1F7B9D20C94B80A51CF6D9824
:10016000759A089581E0659980E00895FBDF91E03C
:10017000892708956A9A6B9A6C9A729A739A749AFC
:100180000895813011F472980895823011F47398B3
:100190000895833009F474980895813011F4729AA7
:1001A0000895823011F4739A0895833009F4749A93
:1001B0000895FF920F931F93CF93DF93082F192F6A
:1001C000F62EC9E3D1E0188286E090E0BED381E04C
:1001D00088838091410180939C02882351F488E0B8
:1001E000809342018EEF91E0B0D3809141018093E2
:1001F0009C028BE0809348018FEF80934F01009326
:100200009D0210939E020093600110936101109271
:100210006201109263018091410180939C02F092EF
:100220009F02DF91CF911F910F91FF9008958FEF63
:1002300080934F0186E080934201E1E4F1E0808108
:100240008F718630E1F7ECE4F1E080818068808393
:1002500008958091A0021092A00208952FEF20939C
:100260004F01209141012F71293041F029E0209365
:100270004201E1E4F1E020812930E9F7262F235FF4
:100280002093800120E22093810122E220938201C9
:1002900021E02093830110928401109285015093F4
:1002A0008601409387011092880110928901209164
:1002B0009E0220938A0120919D0220938B01662348
:1002C00091F0A82FB92F615070E0CB0183579E4F5A
:1002D000ECE8F1E02D912193E817F907D9F7FB013C
:1002E000E357FE4F02C0ECE8F1E01082118282E099
:1002F00080934201EFE4F1E0808186FFFDCF8FEF34
:1003000080934F0186E080934201E1E4F1E0808137
:100310008F718630E1F781E08093A00280914101E6
:1003200080939C02089590914F0181E093FF80E0BB
:1003300008958F929F92AF92BF92CF92DF92EF92E9
:10034000FF920F931F93CF93782FC92F5A01490122
:1003500040917B018FEF80930002EFE4F1E0808118
:1003600082FFFDCF0CC0808190E08F7190702817C4
:10037000390764F480818F718093000204C0AFE478
:10038000B1E0E6E4F1E02091000230E08C9183FFDF
:10039000EACF842F8B50462F861708F4482F3091D0
:1003A000850120E08091860190E0822B932BF5015E
:1003B000918380833091890120E080918A0190E0CF
:1003C000822B932BF40191838083442399F0A72FF0
:1003D000BC2F242F215030E0C90184579E4FEBE8F9
:1003E000F1E051915D93E817F907D9F7F901E45766
:1003F000FE4F02C0EBE8F1E080818093A102F6019C
:100400008083809147018093A202F70180838091CD
:100410004601881F8827881FF8018083E1E4F1E006
:1004200080818F718630E1F7ECE4F1E080818F7795
:1004300080838081806880838FEF80934F018091DB
:10044000410180939C02842F8250CF911F910F9184
:10045000FF90EF90DF90CF90BF90AF909F908F90E4
:100460000895E5E4F1E090818F70907F982B908360
:100470000895809146018F7190910002981710F4B1
:100480008093000208958091000210920002089566
:100490008091A20208958091A102089580919F0207
:1004A000089580919D0290919E0208954F925F92CF
:1004B0006F927F928F929F92AF92BF92CF92DF9274
:1004C000EF92FF924B015C01D9D12B013C01689462
:1004D00013F876946794579447941694D1F70F2E97
:1004E000FAE0CF2EF0E0DF2EF0E0EF2EF0E0FF2E6E
:1004F000F02DC501B401A7019601B6D4C301B20124
:10050000B3D4CA01B9016B5F7F4F8F4F9F4FA701D3
:100510009601AAD4DA01C9010197A109B109E1EC58
:10052000F0E010821092C00026E02093C200292F34
:100530002F702093C5008093C40088E1808381E000
:1005400092E09093230480932204E2E2F4E09293F9
:1005500082939583848381E08093A302FF90EF9040
:10056000DF90CF90BF90AF909F908F907F906F90D3
:100570005F904F9008958091A3020895E0ECF0E021
:10058000908195FFFDCF8093C6000895CF93C82F2B
:10059000F5DF8C2F90E0CF910895CF93DF93EC019E
:1005A0008881882329F02196E9DF89918823E1F762
:1005B000DF91CF9108958091C000881F8827881F00
:1005C0000895F9DF8823E9F38091C6000895CF9359
:1005D000F8DFC82FD3DF8C2F90E0CF910895BC01B6
:1005E0004091A9025091AA024817590741F1ABEA7C
:1005F000B2E09D012E5E3F4FFD01819191918617E2
:100600009707E9F0E217F307C1F74115510541F0EB
:1006100021E030E0A9018D919D91009759F402C02D
:1006200040E050E0FA01EE0FFF1FE755FD4F7183E8
:10063000608308952F5F3F4F2A30310559F70895A1
:10064000FC01009729F18081882311F18085918533
:100650000097F1F0662339F022812130C9F4019727
:100660009187808706C02281222391F40197918788
:10067000808780859185009759F481E08383868106
:100680009781009719F081E0818301C01182108267
:100690000895FC0110821182628313825583448382
:1006A000378326839CCFFC018081882341F481E03D
:1006B0008083118213828481958191878087CF0105
:1006C0008ECFFC01108211820895CF93DF93CDB7B6
:1006D000DEB727970FB6F894DEBF0FBECDBF09EA8D
:1006E00012E00F2EF4E1AF2EBB24F02DA00EB11EB0
:1006F000F80111921192EA15FB05D9F7C4D097D1F0
:10070000442455243324702E612E0F2EF9EA8F2EA7
:10071000F2E09F2EF02D9DDD882309F04FD303DEFC
:10072000882389F18DEB92E060E8AE014A5F5F4F6C
:100730009E012C5F3F4F8E010D5F1F4FEE24FF2463
:100740006894E1F8EC0EFD1E6E010894C11CD11CEA
:10075000F0DD082F8B818823B1F0A3DE2E813F814D
:100760008217930739F08FEF2F3F380719F096DE85
:10077000882349F06C817D818E819F81402F50E0DC
:100780002DEB32E093D1A5D0DC01CB014091A40246
:100790005091A5026091A6027091A70248175907CF
:1007A0006A077B0778F595D0DC01CB0188519C4F17
:1007B000AF4FBF4F8093A4029093A502A093A602CF
:1007C000B093A702072D162DD8018D919D918D0113
:1007D00061E036DF0A151B05B9F70894411C511C6E
:1007E000B8EE4B16B3E05B0668F0072D162DF80146
:1007F000819191918F0160E023DFA016B106B9F7D6
:1008000044245524A72DB62D00E010E0ED91FD9174
:10081000309771F18381882359F1CF0125D1C80127
:10082000880F991F880D991DDC01ED91FC9111979E
:1008300013828181882341F086819781009721F07E
:100840009187808781E0808311828CDC882331F05E
:10085000332021F4CED2332433945DCF87DC882338
:1008600009F459CF332009F456CFEED2332453CFB5
:100870000F5F1F4F0A30110549F6E7CF60E072E1C4
:100880008AE790E008951092800081E080938100D3
:1008900010928200109285001092840010926F00D6
:1008A0000895CF93DF93EC01EEDFD0938500C093E2
:1008B0008400DF91CF91089581E0B09B80E0882390
:1008C00011F091E096BB089580918400909185008D
:1008D0000895CF92DF92EF92FF92C0908400D09063
:1008E0008500D694C794D694C794D694C794EE2422
:1008F000FF24E2DF8823A1F080913D0390913E0325
:10090000A0913F03B09140038050904EAF4FBF4F36
:1009100080933D0390933E03A0933F03B093400325
:1009200080913D0390913E03A0913F03B09140031D
:10093000C80ED91EEA1EFB1E6C2D7D2D8E2D9F2DFF
:10094000FF90EF90DF90CF9008958F929F92AF929B
:10095000BF92CF92DF92EF92FF924C01AA24BB2468
:10096000880C991CAA1CBB1C880C991CAA1CBB1CBB
:10097000880C991CAA1CBB1C80E0881680E0980695
:1009800081E0A80680E0B80678F17501640180E096
:1009900090E087DF80E090E0AFEFBFEFC80ED91E98
:1009A000EA1EFB1E89DF8823E9F390E0C91690E078
:1009B000D90691E0E90690E0F90648F780E090E07A
:1009C000AFEFBFEF880E991EAA1EBB1EB501882788
:1009D000992720E030E04FEF5FEF37D2DC01CB0109
:1009E000880E991EAA1EBB1EC4018095909559DFE2
:1009F00063DF8823E9F3FF90EF90DF90CF90BF9003
:100A0000AF909F908F900895CF93DF93EC01823445
:100A1000910540F088EE9DEF98DFC154D040C2347C
:100A2000D105C0F7CE0191DFDF91CF910895A2DB10
:100A300096DB61E083E090E0BCDB81E012DDF7DB78
:100A400060E875E280E090E031DD80E192E0A1D2E3
:100A500024E630E048EE53E061E08BE493E019DEF9
:100A60008BE493E020CE0895809149038823E9F038
:100A700086E192E08ED280914A03811116C081E016
:100A800080934A031092490384E1ECE0F4E0ACE87F
:100A9000B3E001900D928A95E1F740910C045091DA
:100AA0000D0464E18CE893E0D9CB08956F927F92B6
:100AB0008F929F92AF92BF92CF92DF92EF92FF926E
:100AC0000F931F93CF93DF93CDB7DEB761970FB628
:100AD000F894DEBF0FBECDBF782E692E8B015A0170
:100AE00049019F938F9389E292E09F938F933BD22A
:100AF0001F930F9383E392E09F938F9334D28DE300
:100B000092E047D20FB6F894DEBF0FBECDBF95E09E
:100B1000A916B104BCF07401E4E0EE0EF11CCE01A4
:100B200001966C018A0C9B1C5701F70181917F0192
:100B300090E02AD2F5018081F60181936F01E814DB
:100B4000F90491F7198A809145038111BCC0809105
:100B50000F02882389F181E592E01BD2709266032F
:100B60006092670310936903009368036F927F920A
:100B700084E592E09F938F93F6D1809169038F93E0
:100B8000809168038F938FE592E09F938F93EBD1D1
:100B9000CE0101969F938F938AE693E09F938F9364
:100BA00025D210920F0281E0809348030FB6F8948B
:100BB000DEBF0FBECDBFEDC080916603909167038D
:100BC00008171907D1F4809148038823B1F08CE607
:100BD00092E0DFD1CE0101969F938F938BE793E054
:100BE0009F938F9303D21092480381E08093470331
:100BF0000F900F900F900F90CCC080916803909150
:100C0000690308171907D1F4809147038823B1F0CD
:100C10008FE692E0BED1CE0101969F938F9385E53A
:100C200093E09F938F93E2D11092470381E08093EA
:100C300046030F900F900F900F90ABC0809146032A
:100C4000882309F4A6C062E772E0CE0101966DD157
:100C5000892B09F583E892E09CD181E080934503DC
:100C600085E593E03CD16B017C018BE793E037D1C4
:100C7000C61AD70AE80AF90AC0924103D092420381
:100C8000E0924303F092440383E087DA82E079DA6A
:100C900081E083DA7EC066E872E0CE01019645D13C
:100CA000892B09F076C010927B031092550381E0E6
:100CB00074DA82E072DA83E064DA81E080930F0212
:100CC0001092460366C066E872E0CE0101962DD10F
:100CD000892B39F481E061DA82E05FDA83E051DA6E
:100CE00058C062E772E0CE0101961FD1892B39F41A
:100CF00083E053DA82E051DA81E043DA4AC080913E
:100D00006603909167030817190709F042C0CE01E6
:100D10000196E5D0C0904103D0904203E090430398
:100D2000F0904403DC01CB018C0D9D1DAE1DBF1D59
:100D300010930D0400930C04209168033091690313
:100D40002115310529F030930F0420930E0406C0BD
:100D500023E030E030930F0420930E04BF93AF9351
:100D60009F938F9387E992E09F938F9380E194E024
:100D70009F938F933BD181E08093490383E00DDA09
:100D800082E0FFD981E009DA0FB6F894DEBF0FBE2A
:100D9000CDBF61960FB6F894DEBF0FBECDBFDF9119
:100DA000CF911F910F91FF90EF90DF90CF90BF9068
:100DB000AF909F908F907F906F90089510924A030C
:100DC000ECE8F3E08CE094E01192E817F907E1F722
:100DD00010920D0410920C0410920F0410920E0445
:100DE000E0E1F4E080E294E01192E817F907E1F71E
:100DF000089580914503882331F180916603909195
:100E0000670390930D0480930C0480916803909184
:100E1000690390930F0480930E048AE693E09F93F6
:100E20008F9380E194E09F938F93E0D081E0809353
:100E3000490383E0B2D982E0A4D981E0A2D90F901E
:100E40000F900F900F9008950895DB018F939F935B
:100E50002DD0BF91AF91A29F800D911DA39F900DAA
:100E6000B29F900D11240895A1E21A2EAA1BBB1B5C
:100E7000FD010DC0AA1FBB1FEE1FFF1FA217B30766
:100E8000E407F50720F0A21BB30BE40BF50B661F7C
:100E9000771F881F991F1A9469F760957095809540
:100EA00090959B01AC01BD01CF01089509D0A59F8C
:100EB000900DB49F900DA49F800D911D1124089555
:100EC000A29FB001B39FC001A39F700D811D11248B
:100ED000911DB29F700D811D1124911D08951F93C6
:100EE000FC0199278827BC01E89411911032E9F39D
:100EF000193010F01E30C8F31B3249F01D3241F496
:100F0000689405C01BD0610F711D811D911D119149
:100F100010531A30B8F33EF4909580957095619512
:100F20007F4F8F4F9F4F1F910895FB01DC018D91E3
:100F3000019080190110D9F3990B0895592F482F6A
:100F4000372F262F660F771F881F991F660F771F71
:100F5000881F991F620F731F841F951F660F771FCD
:100F6000881F991F0895CF93DF93CDB7DEB7FE0199
:100F7000359661917191AF01809122049091230483
:100F800063D0DF91CF910895609122047091230482
:100F90005FC20F931F93CF93DF93E0912204F091F0
:100FA0002304238121FF1BC0EC0100E010E08991A4
:100FB0006091220470912304DB011896ED91FC915D
:100FC0001997882331F00995892B89F30FEF1FEFCB
:100FD000EECF8AE00995892B11F4C80102C08FEF8A
:100FE0009FEFDF91CF911F910F9108950F931F9362
:100FF000CF93DF93CDB7DEB72E970FB6F894DEBF51
:101000000FBECDBF0D891E8986E08C831A830983AC
:101010008FEF9FE79E838D83AE01475E5F4F6F89A1
:10102000788DCE01019610D0EF81F885E00FF11F89
:1010300010822E960FB6F894DEBF0FBECDBFDF91A3
:10104000CF911F910F9108952F923F924F925F92EF
:101050006F927F928F929F92AF92BF92CF92DF92C8
:10106000EF92FF920F931F93CF93DF93CDB7DEB72D
:101070002C970FB6F894DEBF0FBECDBF7C016B017D
:101080008A01FC0117821682838181FFB0C1CE01E3
:1010900001964C01F7019381F60193FD859193FF31
:1010A00081916F01882309F49EC1853239F493FD43
:1010B000859193FF81916F01853221F4B70190E012
:1010C000C7D1E8CF512C312C20E02032A0F48B3254
:1010D00069F030F4803259F0833269F420612CC019
:1010E0008D3239F0803339F4216026C022602460CB
:1010F00023C0286021C027FD27C030ED380F3A30CB
:1011000078F426FF06C0FAE05F9E300D1124532EBE
:1011100013C08AE0389E300D1124332E20620CC09B
:101120008E3221F426FD5FC1206406C08C3611F496
:10113000206802C0883641F4F60193FD859193FF43
:1011400081916F018111C1CF982F9F7D955493306C
:1011500028F40C5F1F4FFFE3F9830DC0833631F095
:10116000833771F0833509F057C021C0F8018081C1
:1011700089830E5F1F4F44244394512C540114C0A3
:101180003801F2E06F0E711CF801A080B18026FFDB
:1011900003C0652D70E002C06FEF7FEFC5012C87A3
:1011A0004CD12C0183012C852F77222E16C03801BB
:1011B000F2E06F0E711CF801A080B18026FF03C021
:1011C000652D70E002C06FEF7FEFC5012C872AD13B
:1011D0002C012C852068222E830123FC19C0832D2D
:1011E00090E048165906A0F4B70180E290E030D1B3
:1011F0003A94F5CFF50127FC859127FE81915F0197
:10120000B70190E025D131103A94F1E04F1A51081E
:101210004114510479F7DEC0843611F0893631F576
:10122000F80127FF07C060817181828193810C5F83
:101230001F4F08C060817181882777FD8095982FA6
:101240000E5F1F4F2F76B22E97FF09C090958095A5
:10125000709561957F4F8F4F9F4F2068B22E2AE087
:1012600030E0A40127D1A82EA81843C0853729F45F
:101270002F7EB22E2AE030E025C0F22FF97FBF2E5C
:101280008F36C1F018F4883579F0ADC0803719F089
:10129000883721F0A8C02F2F2061B22EB4FE0DC0D8
:1012A0008B2D8460B82E09C024FF0AC09F2F966042
:1012B000B92E06C028E030E005C020E130E002C0D1
:1012C00020E132E0F801B7FE07C0608171818281C0
:1012D00093810C5F1F4F06C06081718180E090E0B8
:1012E0000E5F1F4FA401E6D0A82EA818FB2DFF7794
:1012F000BF2EB6FE0BC02B2D2E7FA51450F4B4FECE
:101300000AC0B2FC08C02B2D2E7E05C07A2C2B2DD6
:1013100003C07A2C01C0752C24FF0DC0FE01EA0D1C
:10132000F11D8081803311F4297E09C022FF06C09F
:101330007394739404C0822F867809F0739423FD0C
:1013400012C020FF06C05A2C731418F4530C5718FF
:10135000732C731460F4B70180E290E02C8778D08E
:1013600073942C85F6CF731410F4371801C0312C08
:1013700024FF11C0B70180E390E02C8769D02C8551
:1013800022FF16C021FF03C088E590E002C088E775
:1013900090E0B7010CC0822F867851F021FD02C089
:1013A00080E201C08BE227FD8DE2B70190E050D0D2
:1013B000A51430F4B70180E390E04AD05A94F8CFF6
:1013C000AA94F401EA0DF11D8081B70190E040D0AC
:1013D000A110F6CF332009F45DCEB70180E290E092
:1013E00037D03A94F7CFF7018681978102C08FEF0B
:1013F0009FEF2C960FB6F894DEBF0FBECDBFDF91E6
:10140000CF911F910F91FF90EF90DF90CF90BF9001
:10141000AF909F908F907F906F905F904F903F9094
:101420002F900895FC010590615070400110D8F78D
:10143000809590958E0F9F1F0895FC01615070401C
:1014400001900110D8F7809590958E0F9F1F0895F9
:101450000F931F93CF93DF93182F092FEB018B81ED
:1014600081FD03C08FEF9FEF20C082FF10C04E812F
:101470005F812C813D81421753077CF4E881F9811B
:101480009F012F5F3F4F39832883108306C0E88573
:10149000F985812F0995892B29F72E813F812F5FAF
:1014A0003F4F3F832E83812F902FDF91CF911F914C
:1014B0000F910895FA01AA27283051F1203181F1C6
:1014C000E8946F936E7F6E5F7F4F8F4F9F4FAF4F4C
:1014D000B1E03ED0B4E03CD0670F781F891F9A1F5F
:1014E000A11D680F791F8A1F911DA11D6A0F711D13
:1014F000811D911DA11D20D009F468943F912AE01F
:10150000269F11243019305D3193DEF6CF01089506
:10151000462F4770405D4193B3E00FD0C9F7F6CF37
:10152000462F4F70405D4A3318F0495D31FD4052FF
:10153000419302D0A9F7EACFB4E0A6959795879595
:1015400077956795BA95C9F7009761057105089574
:101550009B01AC010A2E0694579547953795279520
:10156000BA95C9F7620F731F841F951FA01D0895B8
:04157000F894FFCF1D
:10157400FF0000000300000000C602E702000001B3
:10158400746573740D0073656E64696E6720612001
:101594006D6573736167650D006473743A20256427
:1015A4000D0A007372633A2025640D0A00726563A4
:1015B40065697665642061206D6573736167650D87
:1015C40000310D00676174653A2025640D0A006FCF
:1015D40070656E65723A2025640D0A00320D003381
:1015E4000D0041434B41434B616341434B41434BEA
:1015F400616300340D004E41434B4E41434B4E4119
:0C160400434B4E41434B00256C75000029
:00000001FF
